{
  "transactions": [
    {
      "hash": "0xdd565b349b20ed40112e2f81e4d6dd534c8a1449b51a529be40af6392fbc0457",
      "transactionType": "CALL",
      "contractName": null,
      "contractAddress": "0x3e60f2364ee0c67d6917cfcaf2e6397f6ee79ac2",
      "function": "mint(address)",
      "arguments": [
        "0xB0730FC38B989e96EA7d1c9B7ceBFf4a9383bd84"
      ],
      "transaction": {
        "from": "0xb0730fc38b989e96ea7d1c9b7cebff4a9383bd84",
        "to": "0x3e60f2364ee0c67d6917cfcaf2e6397f6ee79ac2",
        "gas": "0x13695",
        "value": "0x0",
        "input": "0x6a627842000000000000000000000000b0730fc38b989e96ea7d1c9b7cebff4a9383bd84",
        "nonce": "0xc",
        "chainId": "0x169a6"
      },
      "additionalContracts": [],
      "isFixedGasLimit": false
    },
    {
      "hash": "0xd957e77f9d4f14b0a533300888a548ea42a855d079d797795d7de2ad9c4fea1b",
      "transactionType": "CALL",
      "contractName": null,
      "contractAddress": "0x3e60f2364ee0c67d6917cfcaf2e6397f6ee79ac2",
      "function": "approve(address,uint256)",
      "arguments": [
        "0x927B0660Def01026fc00b12347424742CAC32185",
        "5"
      ],
      "transaction": {
        "from": "0xb0730fc38b989e96ea7d1c9b7cebff4a9383bd84",
        "to": "0x3e60f2364ee0c67d6917cfcaf2e6397f6ee79ac2",
        "gas": "0x1184e",
        "value": "0x0",
        "input": "0x095ea7b3000000000000000000000000927b0660def01026fc00b12347424742cac321850000000000000000000000000000000000000000000000000000000000000005",
        "nonce": "0xd",
        "chainId": "0x169a6"
      },
      "additionalContracts": [],
      "isFixedGasLimit": false
    },
    {
      "hash": "0x09bc22ee922664bf4e2fb253147a62139423881942f4abf027bcd50f93c1ccac",
      "transactionType": "CALL",
      "contractName": null,
      "contractAddress": "0x927b0660def01026fc00b12347424742cac32185",
      "function": "listNFT(uint256,uint256)",
      "arguments": [
        "5",
        "1000000000000000000000"
      ],
      "transaction": {
        "from": "0xb0730fc38b989e96ea7d1c9b7cebff4a9383bd84",
        "to": "0x927b0660def01026fc00b12347424742cac32185",
        "gas": "0x2d2e6",
        "value": "0x0",
        "input": "0x94383f14000000000000000000000000000000000000000000000000000000000000000500000000000000000000000000000000000000000000003635c9adc5dea00000",
        "nonce": "0xe",
        "chainId": "0x169a6"
      },
      "additionalContracts": [],
      "isFixedGasLimit": false
    }
  ],
  "receipts": [
    {
      "status": "0x1",
      "cumulativeGasUsed": "0x6a4a10",
      "logs": [
        {
          "address": "0x3e60f2364ee0c67d6917cfcaf2e6397f6ee79ac2",
          "topics": [
            "0xddf252ad1be2c89b69c2b068fc378daa952ba7f163c4a11628f55a4df523b3ef",
            "0x0000000000000000000000000000000000000000000000000000000000000000",
            "0x000000000000000000000000b0730fc38b989e96ea7d1c9b7cebff4a9383bd84",
            "0x0000000000000000000000000000000000000000000000000000000000000005"
          ],
          "data": "0x",
          "blockHash": "0x97fcef530fff89d1139e9379c9fe644918c86d6f809d98cd71c551ec5aea29af",
          "blockNumber": "0x16b7257",
          "transactionHash": "0xdd565b349b20ed40112e2f81e4d6dd534c8a1449b51a529be40af6392fbc0457",
          "transactionIndex": "0x0",
          "logIndex": "0x0",
          "removed": false
        }
      ],
      "logsBloom": "0x00000000000000000000000000000000000000000000000000000000000000000000000000000000000000000000000000000000000000000000000000000000000010000000000000000008000000000000000000000000000000000000000000000000020000000000000000000800000000000000000000000010000000000000000000000000000000000000001000000800020000000000000000000000000000000000000000000000000000000001000000000000000004000000000000000002000000000000000000000000000000800000000000000000000024000000000000000000000000000000000000000000000000000000000000000400",
      "type": "0x2",
      "transactionHash": "0xdd565b349b20ed40112e2f81e4d6dd534c8a1449b51a529be40af6392fbc0457",
      "transactionIndex": "0x0",
      "blockHash": "0x97fcef530fff89d1139e9379c9fe644918c86d6f809d98cd71c551ec5aea29af",
      "blockNumber": "0x16b7257",
      "gasUsed": "0xe0dc",
      "effectiveGasPrice": "0x8b7141b",
      "from": "0xb0730fc38b989e96ea7d1c9b7cebff4a9383bd84",
      "to": "0x3e60f2364ee0c67d6917cfcaf2e6397f6ee79ac2",
      "contractAddress": null
    },
    {
      "status": "0x1",
      "cumulativeGasUsed": "0x6a28de",
      "logs": [
        {
          "address": "0x3e60f2364ee0c67d6917cfcaf2e6397f6ee79ac2",
          "topics": [
            "0x8c5be1e5ebec7d5bd14f71427d1e84f3dd0314c0f7b2291e5b200ac8c7c3b925",
            "0x000000000000000000000000b0730fc38b989e96ea7d1c9b7cebff4a9383bd84",
            "0x000000000000000000000000927b0660def01026fc00b12347424742cac32185",
            "0x0000000000000000000000000000000000000000000000000000000000000005"
          ],
          "data": "0x",
          "blockHash": "0x97fcef530fff89d1139e9379c9fe644918c86d6f809d98cd71c551ec5aea29af",
          "blockNumber": "0x16b7257",
          "transactionHash": "0xd957e77f9d4f14b0a533300888a548ea42a855d079d797795d7de2ad9c4fea1b",
          "transactionIndex": "0x1",
          "logIndex": "0x0",
          "removed": false
        }
      ],
      "logsBloom": "0x00000000000000000000000000000000000000000000000000000000000000000000000000000000000000000000000000000000000000000000000000600000000010000000000000000000000000000000000000000000000000000000000000000000000000000000000000000000000000000000000000000000000000000000000000000000000000000000001000000800020000000000000000000000020000000000000000000000000020400001000000000000000004000000000000000000000000000000000000000000000000800000000000000000000004000010000000000000000000000000000000000000000000000000000000000400",
      "type": "0x2",
      "transactionHash": "0xd957e77f9d4f14b0a533300888a548ea42a855d079d797795d7de2ad9c4fea1b",
      "transactionIndex": "0x1",
      "blockHash": "0x97fcef530fff89d1139e9379c9fe644918c86d6f809d98cd71c551ec5aea29af",
      "blockNumber": "0x16b7257",
      "gasUsed": "0xbfaa",
      "effectiveGasPrice": "0x8b7141b",
      "from": "0xb0730fc38b989e96ea7d1c9b7cebff4a9383bd84",
      "to": "0x3e60f2364ee0c67d6917cfcaf2e6397f6ee79ac2",
      "contractAddress": null
    },
    {
      "status": "0x1",
      "cumulativeGasUsed": "0x6b577f",
      "logs": [
        {
          "address": "0x927b0660def01026fc00b12347424742cac32185",
          "topics": [
            "0x5f9c03de076f5063cd3ebcfe8ef7aa8af378e4b35a83c77ba9777e97083879a2",
            "0x0000000000000000000000000000000000000000000000000000000000000005",
            "0x000000000000000000000000b0730fc38b989e96ea7d1c9b7cebff4a9383bd84"
          ],
          "data": "0x00000000000000000000000000000000000000000000003635c9adc5dea00000",
          "blockHash": "0x97fcef530fff89d1139e9379c9fe644918c86d6f809d98cd71c551ec5aea29af",
          "blockNumber": "0x16b7257",
          "transactionHash": "0x09bc22ee922664bf4e2fb253147a62139423881942f4abf027bcd50f93c1ccac",
          "transactionIndex": "0x2",
          "logIndex": "0x0",
          "removed": false
        }
      ],
      "logsBloom": "0x00000000000000000000000000000000000000000000000000000000000000000000000000000000000000000000000400000000000000000000000000000000000010000000000000000000000000000000000000000000000000000000000000000000000002000000000000000000000000000000000000000000000000000000000000000000080000000000021000000800400000000000000000000000000000000000000000000000000000000001000000000000000000000000000000000000000000000000000000000000000000800200000000000000000000000000000000000000000000000000000000000000000000000000000000000400",
      "type": "0x2",
      "transactionHash": "0x09bc22ee922664bf4e2fb253147a62139423881942f4abf027bcd50f93c1ccac",
      "transactionIndex": "0x2",
      "blockHash": "0x97fcef530fff89d1139e9379c9fe644918c86d6f809d98cd71c551ec5aea29af",
      "blockNumber": "0x16b7257",
      "gasUsed": "0x1ee4b",
      "effectiveGasPrice": "0x8b7141b",
      "from": "0xb0730fc38b989e96ea7d1c9b7cebff4a9383bd84",
      "to": "0x927b0660def01026fc00b12347424742cac32185",
      "contractAddress": null
    }
  ],
  "libraries": [],
  "pending": [],
  "returns": {},
  "timestamp": 1763383503,
  "chain": 92582,
  "commit": "66b3ce3"
}