{
  "transactions": [
    {
      "hash": "0xc32a45570a72426f29ea3cb2e576c543a009cc8141eb964c13a2a203fb8f511e",
      "transactionType": "CALL",
      "contractName": null,
      "contractAddress": "0x3e60f2364ee0c67d6917cfcaf2e6397f6ee79ac2",
      "function": "mint(address)",
      "arguments": [
        "0xB0730FC38B989e96EA7d1c9B7ceBFf4a9383bd84"
      ],
      "transaction": {
        "from": "0xb0730fc38b989e96ea7d1c9b7cebff4a9383bd84",
        "to": "0x3e60f2364ee0c67d6917cfcaf2e6397f6ee79ac2",
        "gas": "0x13695",
        "value": "0x0",
        "input": "0x6a627842000000000000000000000000b0730fc38b989e96ea7d1c9b7cebff4a9383bd84",
        "nonce": "0x9",
        "chainId": "0x169a6"
      },
      "additionalContracts": [],
      "isFixedGasLimit": false
    },
    {
      "hash": "0x3e866f75aeabb226ae6dcaf058a62c7319c7b23c6bf84e4f10ecd854b0d5498a",
      "transactionType": "CALL",
      "contractName": null,
      "contractAddress": "0x3e60f2364ee0c67d6917cfcaf2e6397f6ee79ac2",
      "function": "approve(address,uint256)",
      "arguments": [
        "0x927B0660Def01026fc00b12347424742CAC32185",
        "4"
      ],
      "transaction": {
        "from": "0xb0730fc38b989e96ea7d1c9b7cebff4a9383bd84",
        "to": "0x3e60f2364ee0c67d6917cfcaf2e6397f6ee79ac2",
        "gas": "0x1184e",
        "value": "0x0",
        "input": "0x095ea7b3000000000000000000000000927b0660def01026fc00b12347424742cac321850000000000000000000000000000000000000000000000000000000000000004",
        "nonce": "0xa",
        "chainId": "0x169a6"
      },
      "additionalContracts": [],
      "isFixedGasLimit": false
    },
    {
      "hash": "0xe632b0011232278dd86c605fa04f3c98be0e05d8d197e8dbef0ebcca82a72673",
      "transactionType": "CALL",
      "contractName": null,
      "contractAddress": "0x927b0660def01026fc00b12347424742cac32185",
      "function": "listNFT(uint256,uint256)",
      "arguments": [
        "4",
        "1000000000000000000000"
      ],
      "transaction": {
        "from": "0xb0730fc38b989e96ea7d1c9b7cebff4a9383bd84",
        "to": "0x927b0660def01026fc00b12347424742cac32185",
        "gas": "0x2d2e6",
        "value": "0x0",
        "input": "0x94383f14000000000000000000000000000000000000000000000000000000000000000400000000000000000000000000000000000000000000003635c9adc5dea00000",
        "nonce": "0xb",
        "chainId": "0x169a6"
      },
      "additionalContracts": [],
      "isFixedGasLimit": false
    }
  ],
  "receipts": [
    {
      "status": "0x1",
      "cumulativeGasUsed": "0x1499ac9",
      "logs": [
        {
          "address": "0x3e60f2364ee0c67d6917cfcaf2e6397f6ee79ac2",
          "topics": [
            "0xddf252ad1be2c89b69c2b068fc378daa952ba7f163c4a11628f55a4df523b3ef",
            "0x0000000000000000000000000000000000000000000000000000000000000000",
            "0x000000000000000000000000b0730fc38b989e96ea7d1c9b7cebff4a9383bd84",
            "0x0000000000000000000000000000000000000000000000000000000000000004"
          ],
          "data": "0x",
          "blockHash": "0xfbd94058b959a9f5a82f9686d61842799e64ad1e98e42304ba7c0cb205f06cef",
          "blockNumber": "0x16b7252",
          "transactionHash": "0xc32a45570a72426f29ea3cb2e576c543a009cc8141eb964c13a2a203fb8f511e",
          "transactionIndex": "0x0",
          "logIndex": "0x0",
          "removed": false
        }
      ],
      "logsBloom": "0x00000000000000000000000000000000000000000000000000000000000000000000000000000000000000000000000000000000000000000000000000000000000000000000000000000008000000000000000000000000000000000000000008000000020000000000000000000800000000000000000000000010000000000000000000000000000000000000000000000000020000000000000000000000000000000000000000000000000000000001000000000000002004000000000000000002000000000000000000000000000000808000000000000000000024000000000000000000000000000000000000000000000000000000000000000400",
      "type": "0x2",
      "transactionHash": "0xc32a45570a72426f29ea3cb2e576c543a009cc8141eb964c13a2a203fb8f511e",
      "transactionIndex": "0x0",
      "blockHash": "0xfbd94058b959a9f5a82f9686d61842799e64ad1e98e42304ba7c0cb205f06cef",
      "blockNumber": "0x16b7252",
      "gasUsed": "0xe0dc",
      "effectiveGasPrice": "0x8d23c7c",
      "from": "0xb0730fc38b989e96ea7d1c9b7cebff4a9383bd84",
      "to": "0x3e60f2364ee0c67d6917cfcaf2e6397f6ee79ac2",
      "contractAddress": null
    },
    {
      "status": "0x1",
      "cumulativeGasUsed": "0x1497997",
      "logs": [
        {
          "address": "0x3e60f2364ee0c67d6917cfcaf2e6397f6ee79ac2",
          "topics": [
            "0x8c5be1e5ebec7d5bd14f71427d1e84f3dd0314c0f7b2291e5b200ac8c7c3b925",
            "0x000000000000000000000000b0730fc38b989e96ea7d1c9b7cebff4a9383bd84",
            "0x000000000000000000000000927b0660def01026fc00b12347424742cac32185",
            "0x0000000000000000000000000000000000000000000000000000000000000004"
          ],
          "data": "0x",
          "blockHash": "0xfbd94058b959a9f5a82f9686d61842799e64ad1e98e42304ba7c0cb205f06cef",
          "blockNumber": "0x16b7252",
          "transactionHash": "0x3e866f75aeabb226ae6dcaf058a62c7319c7b23c6bf84e4f10ecd854b0d5498a",
          "transactionIndex": "0x1",
          "logIndex": "0x0",
          "removed": false
        }
      ],
      "logsBloom": "0x00000000000000000000000000000000000000000000000000000000000000000000000000000000000000000000000000000000000000000000000000600000000000000000000000000000000000000000000000000000000000000000000008000000000000000000000000000000000000000000000000000000000000000000000000000000000000000000000000000000020000000000000000000000020000000000000000000000000020400001000000000000002004000000000000000000000000000000000000000000000000808000000000000000000004000010000000000000000000000000000000000000000000000000000000000400",
      "type": "0x2",
      "transactionHash": "0x3e866f75aeabb226ae6dcaf058a62c7319c7b23c6bf84e4f10ecd854b0d5498a",
      "transactionIndex": "0x1",
      "blockHash": "0xfbd94058b959a9f5a82f9686d61842799e64ad1e98e42304ba7c0cb205f06cef",
      "blockNumber": "0x16b7252",
      "gasUsed": "0xbfaa",
      "effectiveGasPrice": "0x8d23c7c",
      "from": "0xb0730fc38b989e96ea7d1c9b7cebff4a9383bd84",
      "to": "0x3e60f2364ee0c67d6917cfcaf2e6397f6ee79ac2",
      "contractAddress": null
    },
    {
      "status": "0x1",
      "cumulativeGasUsed": "0x14aa838",
      "logs": [
        {
          "address": "0x927b0660def01026fc00b12347424742cac32185",
          "topics": [
            "0x5f9c03de076f5063cd3ebcfe8ef7aa8af378e4b35a83c77ba9777e97083879a2",
            "0x0000000000000000000000000000000000000000000000000000000000000004",
            "0x000000000000000000000000b0730fc38b989e96ea7d1c9b7cebff4a9383bd84"
          ],
          "data": "0x00000000000000000000000000000000000000000000003635c9adc5dea00000",
          "blockHash": "0xfbd94058b959a9f5a82f9686d61842799e64ad1e98e42304ba7c0cb205f06cef",
          "blockNumber": "0x16b7252",
          "transactionHash": "0xe632b0011232278dd86c605fa04f3c98be0e05d8d197e8dbef0ebcca82a72673",
          "transactionIndex": "0x2",
          "logIndex": "0x0",
          "removed": false
        }
      ],
      "logsBloom": "0x00000000000000000000000000000000000000000000000000000000000000000000000000000000000000000000000400000000000000000000000000000000000000000000000000000000000000000000000000000000000000000000000008000000000002000000000000000000000000000000000000000000000000000000000000000000080000000000020000000000400000000000000000000000000000000000000000000000000000000001000000000000002000000000000000000000000000000000000000000000000000808200000000000000000000000000000000000000000000000000000000000000000000000000000000000400",
      "type": "0x2",
      "transactionHash": "0xe632b0011232278dd86c605fa04f3c98be0e05d8d197e8dbef0ebcca82a72673",
      "transactionIndex": "0x2",
      "blockHash": "0xfbd94058b959a9f5a82f9686d61842799e64ad1e98e42304ba7c0cb205f06cef",
      "blockNumber": "0x16b7252",
      "gasUsed": "0x1ee4b",
      "effectiveGasPrice": "0x8d23c7c",
      "from": "0xb0730fc38b989e96ea7d1c9b7cebff4a9383bd84",
      "to": "0x927b0660def01026fc00b12347424742cac32185",
      "contractAddress": null
    }
  ],
  "libraries": [],
  "pending": [],
  "returns": {},
  "timestamp": 1763383442,
  "chain": 92582,
  "commit": "66b3ce3"
}