{
  "transactions": [
    {
      "hash": "0x507bfbb57a24de523044ad369f9b91c67a0eb70a5282e06157732811dbee8755",
      "transactionType": "CALL",
      "contractName": null,
      "contractAddress": "0x3e60f2364ee0c67d6917cfcaf2e6397f6ee79ac2",
      "function": "mint(address)",
      "arguments": [
        "0x91af68120453b66239F7e36790bA4c8B72B56Bf5"
      ],
      "transaction": {
        "from": "0x91af68120453b66239f7e36790ba4c8b72b56bf5",
        "to": "0x3e60f2364ee0c67d6917cfcaf2e6397f6ee79ac2",
        "gas": "0x1ef1c",
        "value": "0x0",
        "input": "0x6a62784200000000000000000000000091af68120453b66239f7e36790ba4c8b72b56bf5",
        "nonce": "0x3",
        "chainId": "0x169a6"
      },
      "additionalContracts": [],
      "isFixedGasLimit": false
    },
    {
      "hash": "0xdcfa96618e2ae12b5afd230f5b738646ff86c8f096a5270720e4efd4dab6ea28",
      "transactionType": "CALL",
      "contractName": null,
      "contractAddress": "0x3e60f2364ee0c67d6917cfcaf2e6397f6ee79ac2",
      "function": "approve(address,uint256)",
      "arguments": [
        "0x927B0660Def01026fc00b12347424742CAC32185",
        "0"
      ],
      "transaction": {
        "from": "0x91af68120453b66239f7e36790ba4c8b72b56bf5",
        "to": "0x3e60f2364ee0c67d6917cfcaf2e6397f6ee79ac2",
        "gas": "0x108aa",
        "value": "0x0",
        "input": "0x095ea7b3000000000000000000000000927b0660def01026fc00b12347424742cac321850000000000000000000000000000000000000000000000000000000000000000",
        "nonce": "0x4",
        "chainId": "0x169a6"
      },
      "additionalContracts": [],
      "isFixedGasLimit": false
    },
    {
      "hash": "0x829d6242d44e773cbc8d9915bbf7f135a0694ec6c9e71e0146d1c15bbe0ecf9b",
      "transactionType": "CALL",
      "contractName": null,
      "contractAddress": "0x927b0660def01026fc00b12347424742cac32185",
      "function": "listNFT(uint256,uint256)",
      "arguments": [
        "0",
        "1000000000000000000000"
      ],
      "transaction": {
        "from": "0x91af68120453b66239f7e36790ba4c8b72b56bf5",
        "to": "0x927b0660def01026fc00b12347424742cac32185",
        "gas": "0x29b90",
        "value": "0x0",
        "input": "0x94383f14000000000000000000000000000000000000000000000000000000000000000000000000000000000000000000000000000000000000003635c9adc5dea00000",
        "nonce": "0x5",
        "chainId": "0x169a6"
      },
      "additionalContracts": [],
      "isFixedGasLimit": false
    }
  ],
  "receipts": [
    {
      "status": "0x1",
      "cumulativeGasUsed": "0x8d5557",
      "logs": [
        {
          "address": "0x3e60f2364ee0c67d6917cfcaf2e6397f6ee79ac2",
          "topics": [
            "0xddf252ad1be2c89b69c2b068fc378daa952ba7f163c4a11628f55a4df523b3ef",
            "0x0000000000000000000000000000000000000000000000000000000000000000",
            "0x00000000000000000000000091af68120453b66239f7e36790ba4c8b72b56bf5",
            "0x0000000000000000000000000000000000000000000000000000000000000000"
          ],
          "data": "0x",
          "blockHash": "0xcdaca4fd43bb818992924624493cf1c7628128be1a76b558f61075bef3edea3c",
          "blockNumber": "0x16b70b2",
          "transactionHash": "0x507bfbb57a24de523044ad369f9b91c67a0eb70a5282e06157732811dbee8755",
          "transactionIndex": "0x0",
          "logIndex": "0x0",
          "removed": false
        }
      ],
      "logsBloom": "0x000000000000000000000000000000000000000000000000000000000000000000000000000000000000000000000000000000000080000000000000000000000000000040000000000000080000000000000000000000000000000000000000000000000200000000000000000008000000000000000000000000100000000000000000000000000000000000000000000000000a0000000000000000000000000000000000000000000000000000000000000000000000000004000000000000000002000000000000000000000000000000000000000000000000000024000000000000000000000000000000000000000000000000000000000000000000",
      "type": "0x2",
      "transactionHash": "0x507bfbb57a24de523044ad369f9b91c67a0eb70a5282e06157732811dbee8755",
      "transactionIndex": "0x0",
      "blockHash": "0xcdaca4fd43bb818992924624493cf1c7628128be1a76b558f61075bef3edea3c",
      "blockNumber": "0x16b70b2",
      "gasUsed": "0x16674",
      "effectiveGasPrice": "0x602a3e7",
      "from": "0x91af68120453b66239f7e36790ba4c8b72b56bf5",
      "to": "0x3e60f2364ee0c67d6917cfcaf2e6397f6ee79ac2",
      "contractAddress": null
    },
    {
      "status": "0x1",
      "cumulativeGasUsed": "0x8cae81",
      "logs": [
        {
          "address": "0x3e60f2364ee0c67d6917cfcaf2e6397f6ee79ac2",
          "topics": [
            "0x8c5be1e5ebec7d5bd14f71427d1e84f3dd0314c0f7b2291e5b200ac8c7c3b925",
            "0x00000000000000000000000091af68120453b66239f7e36790ba4c8b72b56bf5",
            "0x000000000000000000000000927b0660def01026fc00b12347424742cac32185",
            "0x0000000000000000000000000000000000000000000000000000000000000000"
          ],
          "data": "0x",
          "blockHash": "0xcdaca4fd43bb818992924624493cf1c7628128be1a76b558f61075bef3edea3c",
          "blockNumber": "0x16b70b2",
          "transactionHash": "0xdcfa96618e2ae12b5afd230f5b738646ff86c8f096a5270720e4efd4dab6ea28",
          "transactionIndex": "0x1",
          "logIndex": "0x0",
          "removed": false
        }
      ],
      "logsBloom": "0x000000000000000000000000000000000000000000000000000000000000000000000000000000000000000000000000000000000080000000000000006000000000000040000000000000000000000000000000000000000000000000000000000000000200000000000000000008000000000000000000000000000000000000000000000000000000000000000000000000000a0000000000000000000000020000000000000000000000000020400000000000000000000004000000000000000000000000000000000000000000000000000000000000000000000024000010000000000000000000000000000000000000000000000000000000000000",
      "type": "0x2",
      "transactionHash": "0xdcfa96618e2ae12b5afd230f5b738646ff86c8f096a5270720e4efd4dab6ea28",
      "transactionIndex": "0x1",
      "blockHash": "0xcdaca4fd43bb818992924624493cf1c7628128be1a76b558f61075bef3edea3c",
      "blockNumber": "0x16b70b2",
      "gasUsed": "0xbf9e",
      "effectiveGasPrice": "0x602a3e7",
      "from": "0x91af68120453b66239f7e36790ba4c8b72b56bf5",
      "to": "0x3e60f2364ee0c67d6917cfcaf2e6397f6ee79ac2",
      "contractAddress": null
    },
    {
      "status": "0x1",
      "cumulativeGasUsed": "0x8dd232",
      "logs": [
        {
          "address": "0x927b0660def01026fc00b12347424742cac32185",
          "topics": [
            "0x5f9c03de076f5063cd3ebcfe8ef7aa8af378e4b35a83c77ba9777e97083879a2",
            "0x0000000000000000000000000000000000000000000000000000000000000000",
            "0x00000000000000000000000091af68120453b66239f7e36790ba4c8b72b56bf5"
          ],
          "data": "0x00000000000000000000000000000000000000000000003635c9adc5dea00000",
          "blockHash": "0xcdaca4fd43bb818992924624493cf1c7628128be1a76b558f61075bef3edea3c",
          "blockNumber": "0x16b70b2",
          "transactionHash": "0x829d6242d44e773cbc8d9915bbf7f135a0694ec6c9e71e0146d1c15bbe0ecf9b",
          "transactionIndex": "0x2",
          "logIndex": "0x0",
          "removed": false
        }
      ],
      "logsBloom": "0x00000000000000000000000000000000000000000000000000000000000000000000000000000000000000000000000400000000008000000000000000000000000000004000000000000000000000000000000000000000000000000000000000000000020002000000000000000800000000000000000000000000000000000000000000000000080000000000020000000000480000000000000000000000000000000000000000000000000000000000000000000000000000000000000000000000000000000000000000000000000000000200000000000000000020000000000000000000000000000000000000000000000000000000000000000000",
      "type": "0x2",
      "transactionHash": "0x829d6242d44e773cbc8d9915bbf7f135a0694ec6c9e71e0146d1c15bbe0ecf9b",
      "transactionIndex": "0x2",
      "blockHash": "0xcdaca4fd43bb818992924624493cf1c7628128be1a76b558f61075bef3edea3c",
      "blockNumber": "0x16b70b2",
      "gasUsed": "0x1e34f",
      "effectiveGasPrice": "0x602a3e7",
      "from": "0x91af68120453b66239f7e36790ba4c8b72b56bf5",
      "to": "0x927b0660def01026fc00b12347424742cac32185",
      "contractAddress": null
    }
  ],
  "libraries": [],
  "pending": [],
  "returns": {},
  "timestamp": 1763378323,
  "chain": 92582,
  "commit": "536cd5b"
}