{
  "transactions": [
    {
      "hash": "0xb38e23cdce0cf8f1f3104938ba685cb3a54c0d639188b7c7f3e77b1f2a008d68",
      "transactionType": "CALL",
      "contractName": null,
      "contractAddress": "0x3e60f2364ee0c67d6917cfcaf2e6397f6ee79ac2",
      "function": "mint(address)",
      "arguments": [
        "0xB0730FC38B989e96EA7d1c9B7ceBFf4a9383bd84"
      ],
      "transaction": {
        "from": "0xb0730fc38b989e96ea7d1c9b7cebff4a9383bd84",
        "to": "0x3e60f2364ee0c67d6917cfcaf2e6397f6ee79ac2",
        "gas": "0x13695",
        "value": "0x0",
        "input": "0x6a627842000000000000000000000000b0730fc38b989e96ea7d1c9b7cebff4a9383bd84",
        "nonce": "0x6",
        "chainId": "0x169a6"
      },
      "additionalContracts": [],
      "isFixedGasLimit": false
    },
    {
      "hash": "0xd809e1e05952ecf50ab349041cb4a2c7aa4fa70e49606ce491fccb3a8365ecf9",
      "transactionType": "CALL",
      "contractName": null,
      "contractAddress": "0x3e60f2364ee0c67d6917cfcaf2e6397f6ee79ac2",
      "function": "approve(address,uint256)",
      "arguments": [
        "0x927B0660Def01026fc00b12347424742CAC32185",
        "3"
      ],
      "transaction": {
        "from": "0xb0730fc38b989e96ea7d1c9b7cebff4a9383bd84",
        "to": "0x3e60f2364ee0c67d6917cfcaf2e6397f6ee79ac2",
        "gas": "0x1184e",
        "value": "0x0",
        "input": "0x095ea7b3000000000000000000000000927b0660def01026fc00b12347424742cac321850000000000000000000000000000000000000000000000000000000000000003",
        "nonce": "0x7",
        "chainId": "0x169a6"
      },
      "additionalContracts": [],
      "isFixedGasLimit": false
    },
    {
      "hash": "0xb9ed2f8ec2ad4498ea080734cfc96b362f2f7e130e7a47a4703be21313fa9c15",
      "transactionType": "CALL",
      "contractName": null,
      "contractAddress": "0x927b0660def01026fc00b12347424742cac32185",
      "function": "listNFT(uint256,uint256)",
      "arguments": [
        "3",
        "1000000000000000000000"
      ],
      "transaction": {
        "from": "0xb0730fc38b989e96ea7d1c9b7cebff4a9383bd84",
        "to": "0x927b0660def01026fc00b12347424742cac32185",
        "gas": "0x2d2e6",
        "value": "0x0",
        "input": "0x94383f14000000000000000000000000000000000000000000000000000000000000000300000000000000000000000000000000000000000000003635c9adc5dea00000",
        "nonce": "0x8",
        "chainId": "0x169a6"
      },
      "additionalContracts": [],
      "isFixedGasLimit": false
    }
  ],
  "receipts": [
    {
      "status": "0x1",
      "cumulativeGasUsed": "0x9a2da5",
      "logs": [
        {
          "address": "0x3e60f2364ee0c67d6917cfcaf2e6397f6ee79ac2",
          "topics": [
            "0xddf252ad1be2c89b69c2b068fc378daa952ba7f163c4a11628f55a4df523b3ef",
            "0x0000000000000000000000000000000000000000000000000000000000000000",
            "0x000000000000000000000000b0730fc38b989e96ea7d1c9b7cebff4a9383bd84",
            "0x0000000000000000000000000000000000000000000000000000000000000003"
          ],
          "data": "0x",
          "blockHash": "0x740627bd76548879e1b8dd7961d118d45fd9f0940d530fa64017e235d55ba89e",
          "blockNumber": "0x16b7247",
          "transactionHash": "0xb38e23cdce0cf8f1f3104938ba685cb3a54c0d639188b7c7f3e77b1f2a008d68",
          "transactionIndex": "0x0",
          "logIndex": "0x0",
          "removed": false
        }
      ],
      "logsBloom": "0x00000000000000000000000000000000000000000000000000000000000000000000000000000000000000000000000000000000020000000000000000000000000000000000000000000008000000000000000000000000000000000000000000000000020000000000000000000800000000000000000000000010000000000000000000000000000000000000000000000000020000000000000000000000000000000000000000000000000000000001000000800000000004000000400000000002000000000000000000000000000000800000000000000000000024000000000000000000000000000000000000000000000000000000000000000400",
      "type": "0x2",
      "transactionHash": "0xb38e23cdce0cf8f1f3104938ba685cb3a54c0d639188b7c7f3e77b1f2a008d68",
      "transactionIndex": "0x0",
      "blockHash": "0x740627bd76548879e1b8dd7961d118d45fd9f0940d530fa64017e235d55ba89e",
      "blockNumber": "0x16b7247",
      "gasUsed": "0xe0dc",
      "effectiveGasPrice": "0x8959123",
      "from": "0xb0730fc38b989e96ea7d1c9b7cebff4a9383bd84",
      "to": "0x3e60f2364ee0c67d6917cfcaf2e6397f6ee79ac2",
      "contractAddress": null
    },
    {
      "status": "0x1",
      "cumulativeGasUsed": "0x9a0c73",
      "logs": [
        {
          "address": "0x3e60f2364ee0c67d6917cfcaf2e6397f6ee79ac2",
          "topics": [
            "0x8c5be1e5ebec7d5bd14f71427d1e84f3dd0314c0f7b2291e5b200ac8c7c3b925",
            "0x000000000000000000000000b0730fc38b989e96ea7d1c9b7cebff4a9383bd84",
            "0x000000000000000000000000927b0660def01026fc00b12347424742cac32185",
            "0x0000000000000000000000000000000000000000000000000000000000000003"
          ],
          "data": "0x",
          "blockHash": "0x740627bd76548879e1b8dd7961d118d45fd9f0940d530fa64017e235d55ba89e",
          "blockNumber": "0x16b7247",
          "transactionHash": "0xd809e1e05952ecf50ab349041cb4a2c7aa4fa70e49606ce491fccb3a8365ecf9",
          "transactionIndex": "0x1",
          "logIndex": "0x0",
          "removed": false
        }
      ],
      "logsBloom": "0x00000000000000000000000000000000000000000000000000000000000000000000000000000000000000000000000000000000020000000000000000600000000000000000000000000000000000000000000000000000000000000000000000000000000000000000000000000000000000000000000000000000000000000000000000000000000000000000000000000000020000000000000000000000020000000000000000000000000020400001000000800000000004000000400000000000000000000000000000000000000000800000000000000000000004000010000000000000000000000000000000000000000000000000000000000400",
      "type": "0x2",
      "transactionHash": "0xd809e1e05952ecf50ab349041cb4a2c7aa4fa70e49606ce491fccb3a8365ecf9",
      "transactionIndex": "0x1",
      "blockHash": "0x740627bd76548879e1b8dd7961d118d45fd9f0940d530fa64017e235d55ba89e",
      "blockNumber": "0x16b7247",
      "gasUsed": "0xbfaa",
      "effectiveGasPrice": "0x8959123",
      "from": "0xb0730fc38b989e96ea7d1c9b7cebff4a9383bd84",
      "to": "0x3e60f2364ee0c67d6917cfcaf2e6397f6ee79ac2",
      "contractAddress": null
    },
    {
      "status": "0x1",
      "cumulativeGasUsed": "0x9b3b14",
      "logs": [
        {
          "address": "0x927b0660def01026fc00b12347424742cac32185",
          "topics": [
            "0x5f9c03de076f5063cd3ebcfe8ef7aa8af378e4b35a83c77ba9777e97083879a2",
            "0x0000000000000000000000000000000000000000000000000000000000000003",
            "0x000000000000000000000000b0730fc38b989e96ea7d1c9b7cebff4a9383bd84"
          ],
          "data": "0x00000000000000000000000000000000000000000000003635c9adc5dea00000",
          "blockHash": "0x740627bd76548879e1b8dd7961d118d45fd9f0940d530fa64017e235d55ba89e",
          "blockNumber": "0x16b7247",
          "transactionHash": "0xb9ed2f8ec2ad4498ea080734cfc96b362f2f7e130e7a47a4703be21313fa9c15",
          "transactionIndex": "0x2",
          "logIndex": "0x0",
          "removed": false
        }
      ],
      "logsBloom": "0x00000000000000000000000000000000000000000000000000000000000000000000000000000000000000000000000400000000020000000000000000000000000000000000000000000000000000000000000000000000000000000000000000000000000002000000000000000000000000000000000000000000000000000000000000000000080000000000020000000000400000000000000000000000000000000000000000000000000000000001000000800000000000000000400000000000000000000000000000000000000000800200000000000000000000000000000000000000000000000000000000000000000000000000000000000400",
      "type": "0x2",
      "transactionHash": "0xb9ed2f8ec2ad4498ea080734cfc96b362f2f7e130e7a47a4703be21313fa9c15",
      "transactionIndex": "0x2",
      "blockHash": "0x740627bd76548879e1b8dd7961d118d45fd9f0940d530fa64017e235d55ba89e",
      "blockNumber": "0x16b7247",
      "gasUsed": "0x1ee4b",
      "effectiveGasPrice": "0x8959123",
      "from": "0xb0730fc38b989e96ea7d1c9b7cebff4a9383bd84",
      "to": "0x927b0660def01026fc00b12347424742cac32185",
      "contractAddress": null
    }
  ],
  "libraries": [],
  "pending": [],
  "returns": {},
  "timestamp": 1763383306,
  "chain": 92582,
  "commit": "66b3ce3"
}