{
  "transactions": [
    {
      "hash": "0x30c90014b4d91a6c2dfef56445485553fdda41580697edb9967bdb84de0c11be",
      "transactionType": "CALL",
      "contractName": null,
      "contractAddress": "0x815b53513b9904c238ced990194e79320a2095c6",
      "function": "mint(address,uint256)",
      "arguments": [
        "0x6843E2E8365f59545FD8e6E9A94f5Fb51862F544",
        "1000000000000000000000000"
      ],
      "transaction": {
        "from": "0x91af68120453b66239f7e36790ba4c8b72b56bf5",
        "to": "0x815b53513b9904c238ced990194e79320a2095c6",
        "gas": "0x12820",
        "value": "0x0",
        "input": "0x40c10f190000000000000000000000006843e2e8365f59545fd8e6e9a94f5fb51862f54400000000000000000000000000000000000000000000d3c21bcecceda1000000",
        "nonce": "0x7",
        "chainId": "0x169a6"
      },
      "additionalContracts": [],
      "isFixedGasLimit": false
    }
  ],
  "receipts": [
    {
      "status": "0x1",
      "cumulativeGasUsed": "0x1469193",
      "logs": [
        {
          "address": "0x815b53513b9904c238ced990194e79320a2095c6",
          "topics": [
            "0xddf252ad1be2c89b69c2b068fc378daa952ba7f163c4a11628f55a4df523b3ef",
            "0x0000000000000000000000000000000000000000000000000000000000000000",
            "0x0000000000000000000000006843e2e8365f59545fd8e6e9a94f5fb51862f544"
          ],
          "data": "0x00000000000000000000000000000000000000000000d3c21bcecceda1000000",
          "blockHash": "0x85701b413324dfb4de1dc3d300a0dd64b5dcd62668dda58cbf9188584c869bb7",
          "blockNumber": "0x16b70ed",
          "transactionHash": "0x30c90014b4d91a6c2dfef56445485553fdda41580697edb9967bdb84de0c11be",
          "transactionIndex": "0x0",
          "logIndex": "0x0",
          "removed": false
        }
      ],
      "logsBloom": "0x00000000000000000000000000000000000000000000000000000000000000000000001000000000000000000000000000000000000000000000000000000000000000000000000000000008000000000000000000000000000000000000000000040000020000000000000000000800000000000000800000000010000000000000000000001000000000000000000000000010000000000000000000000000000000000000000000000000000002000000000000000000000000000000000000000002000000000000000000000000000000000000000000000000000020000000000000000000000000000000000000000000000000000000000000000000",
      "type": "0x2",
      "transactionHash": "0x30c90014b4d91a6c2dfef56445485553fdda41580697edb9967bdb84de0c11be",
      "transactionIndex": "0x0",
      "blockHash": "0x85701b413324dfb4de1dc3d300a0dd64b5dcd62668dda58cbf9188584c869bb7",
      "blockNumber": "0x16b70ed",
      "gasUsed": "0xca7b",
      "effectiveGasPrice": "0x6110941",
      "from": "0x91af68120453b66239f7e36790ba4c8b72b56bf5",
      "to": "0x815b53513b9904c238ced990194e79320a2095c6",
      "contractAddress": null
    }
  ],
  "libraries": [],
  "pending": [],
  "returns": {},
  "timestamp": 1763379039,
  "chain": 92582,
  "commit": "536cd5b"
}