{
  "transactions": [
    {
      "hash": "0xd4f53a0dc60f5e2c872610c3d676eb332d5ca4cf05e133ba5d244fc705454309",
      "transactionType": "CALL",
      "contractName": null,
      "contractAddress": "0xc99208d6866c861bd849fc13b0e0e916b131d29e",
      "function": "mint(address,uint256)",
      "arguments": [
        "0x30691eC2960332D29f1821970159cD28A50a3285",
        "1010000000000000000000"
      ],
      "transaction": {
        "from": "0x30691ec2960332d29f1821970159cd28a50a3285",
        "to": "0xc99208d6866c861bd849fc13b0e0e916b131d29e",
        "gas": "0x12820",
        "value": "0x0",
        "input": "0x40c10f1900000000000000000000000030691ec2960332d29f1821970159cd28a50a3285000000000000000000000000000000000000000000000036c090d0ca68880000",
        "nonce": "0x0",
        "chainId": "0x79d9"
      },
      "additionalContracts": [],
      "isFixedGasLimit": false
    },
    {
      "hash": "0xb63815cf64f030776e651ce2ad19ceb4a450385e82b8fed1b92f2076bed0a5bc",
      "transactionType": "CALL",
      "contractName": null,
      "contractAddress": "0xc99208d6866c861bd849fc13b0e0e916b131d29e",
      "function": "approve(address,uint256)",
      "arguments": [
        "0x5231E0649C8560A0e3f24fA4ee07F163846b0E2b",
        "1000000000000000000000"
      ],
      "transaction": {
        "from": "0x30691ec2960332d29f1821970159cd28a50a3285",
        "to": "0xc99208d6866c861bd849fc13b0e0e916b131d29e",
        "gas": "0xfd42",
        "value": "0x0",
        "input": "0x095ea7b30000000000000000000000005231e0649c8560a0e3f24fa4ee07f163846b0e2b00000000000000000000000000000000000000000000003635c9adc5dea00000",
        "nonce": "0x1",
        "chainId": "0x79d9"
      },
      "additionalContracts": [],
      "isFixedGasLimit": false
    },
    {
      "hash": "0xbeee08ed2e8cad7c8dec63413a4affe2151d66a8dd96a832bb6fa6295c9cde85",
      "transactionType": "CALL",
      "contractName": null,
      "contractAddress": "0x5231e0649c8560a0e3f24fa4ee07f163846b0e2b",
      "function": "purchaseNFT(uint256)",
      "arguments": [
        "1"
      ],
      "transaction": {
        "from": "0x30691ec2960332d29f1821970159cd28a50a3285",
        "to": "0x5231e0649c8560a0e3f24fa4ee07f163846b0e2b",
        "gas": "0x2a036",
        "value": "0x0",
        "input": "0x150bde030000000000000000000000000000000000000000000000000000000000000001",
        "nonce": "0x2",
        "chainId": "0x79d9"
      },
      "additionalContracts": [],
      "isFixedGasLimit": false
    }
  ],
  "receipts": [
    {
      "status": "0x1",
      "cumulativeGasUsed": "0x1bae2ce",
      "logs": [
        {
          "address": "0xc99208d6866c861bd849fc13b0e0e916b131d29e",
          "topics": [
            "0xddf252ad1be2c89b69c2b068fc378daa952ba7f163c4a11628f55a4df523b3ef",
            "0x0000000000000000000000000000000000000000000000000000000000000000",
            "0x00000000000000000000000030691ec2960332d29f1821970159cd28a50a3285"
          ],
          "data": "0x000000000000000000000000000000000000000000000036c090d0ca68880000",
          "blockHash": "0x8c11974349f98094a402a61031b3574fba40759868d27b4e7f9797c0d0e3c4f5",
          "blockNumber": "0x16b73c4",
          "transactionHash": "0xd4f53a0dc60f5e2c872610c3d676eb332d5ca4cf05e133ba5d244fc705454309",
          "transactionIndex": "0x0",
          "logIndex": "0x0",
          "removed": false
        }
      ],
      "logsBloom": "0x00000000000000008000000000000000000000000000000200000000000000000000000000000000000000000000000000000000000000000000000000000000000000000000000000000008000000000000000000100000000000000000000000000000020000000000000000000800000000000000000000000010000000000000000000000000000000000000000000000000000000000000000000000000000000000000000000000000000000000000000000000000000000000000000000000002000000000000000000000000000000000001000000000000000020000000000000000000000000000000000000000001000000010000000000000000",
      "type": "0x2",
      "transactionHash": "0xd4f53a0dc60f5e2c872610c3d676eb332d5ca4cf05e133ba5d244fc705454309",
      "transactionIndex": "0x0",
      "blockHash": "0x8c11974349f98094a402a61031b3574fba40759868d27b4e7f9797c0d0e3c4f5",
      "blockNumber": "0x16b73c4",
      "gasUsed": "0xca7b",
      "effectiveGasPrice": "0x1c3e7807",
      "from": "0x30691ec2960332d29f1821970159cd28a50a3285",
      "to": "0xc99208d6866c861bd849fc13b0e0e916b131d29e",
      "contractAddress": null
    },
    {
      "status": "0x1",
      "cumulativeGasUsed": "0x1bacfaf",
      "logs": [
        {
          "address": "0xc99208d6866c861bd849fc13b0e0e916b131d29e",
          "topics": [
            "0x8c5be1e5ebec7d5bd14f71427d1e84f3dd0314c0f7b2291e5b200ac8c7c3b925",
            "0x00000000000000000000000030691ec2960332d29f1821970159cd28a50a3285",
            "0x0000000000000000000000005231e0649c8560a0e3f24fa4ee07f163846b0e2b"
          ],
          "data": "0x00000000000000000000000000000000000000000000003635c9adc5dea00000",
          "blockHash": "0x8c11974349f98094a402a61031b3574fba40759868d27b4e7f9797c0d0e3c4f5",
          "blockNumber": "0x16b73c4",
          "transactionHash": "0xb63815cf64f030776e651ce2ad19ceb4a450385e82b8fed1b92f2076bed0a5bc",
          "transactionIndex": "0x1",
          "logIndex": "0x0",
          "removed": false
        }
      ],
      "logsBloom": "0x00000000000000008000000000000000000000000000000200000000000000000000000000000000000000000000000000000000000000000000000000200002000000000000000000000000000000000000040000100000000000000000000000000000000000000000000000000000000000000000000000000000000000000000000000000000000000000002000000000000000000000000000000000000020000000000000000000000000000000000000000000000000000000000000000000000000000000000000000000000000000000001000000000000000000000010000000000000000000000000000000000001000000010000000000000000",
      "type": "0x2",
      "transactionHash": "0xb63815cf64f030776e651ce2ad19ceb4a450385e82b8fed1b92f2076bed0a5bc",
      "transactionIndex": "0x1",
      "blockHash": "0x8c11974349f98094a402a61031b3574fba40759868d27b4e7f9797c0d0e3c4f5",
      "blockNumber": "0x16b73c4",
      "gasUsed": "0xb75c",
      "effectiveGasPrice": "0x1c3e7807",
      "from": "0x30691ec2960332d29f1821970159cd28a50a3285",
      "to": "0xc99208d6866c861bd849fc13b0e0e916b131d29e",
      "contractAddress": null
    },
    {
      "status": "0x1",
      "cumulativeGasUsed": "0x1bbe3f5",
      "logs": [
        {
          "address": "0xc99208d6866c861bd849fc13b0e0e916b131d29e",
          "topics": [
            "0xddf252ad1be2c89b69c2b068fc378daa952ba7f163c4a11628f55a4df523b3ef",
            "0x00000000000000000000000030691ec2960332d29f1821970159cd28a50a3285",
            "0x0000000000000000000000005231e0649c8560a0e3f24fa4ee07f163846b0e2b"
          ],
          "data": "0x0000000000000000000000000000000000000000000000008ac7230489e80000",
          "blockHash": "0x8c11974349f98094a402a61031b3574fba40759868d27b4e7f9797c0d0e3c4f5",
          "blockNumber": "0x16b73c4",
          "transactionHash": "0xbeee08ed2e8cad7c8dec63413a4affe2151d66a8dd96a832bb6fa6295c9cde85",
          "transactionIndex": "0x2",
          "logIndex": "0x0",
          "removed": false
        },
        {
          "address": "0xc99208d6866c861bd849fc13b0e0e916b131d29e",
          "topics": [
            "0xddf252ad1be2c89b69c2b068fc378daa952ba7f163c4a11628f55a4df523b3ef",
            "0x00000000000000000000000030691ec2960332d29f1821970159cd28a50a3285",
            "0x000000000000000000000000fd13f52f5b4389e67bd74b60d16d6352117b5138"
          ],
          "data": "0x000000000000000000000000000000000000000000000035ab028ac154b80000",
          "blockHash": "0x8c11974349f98094a402a61031b3574fba40759868d27b4e7f9797c0d0e3c4f5",
          "blockNumber": "0x16b73c4",
          "transactionHash": "0xbeee08ed2e8cad7c8dec63413a4affe2151d66a8dd96a832bb6fa6295c9cde85",
          "transactionIndex": "0x2",
          "logIndex": "0x1",
          "removed": false
        },
        {
          "address": "0x425c59f0b45b51fd2e440bd451110835ba98c623",
          "topics": [
            "0xddf252ad1be2c89b69c2b068fc378daa952ba7f163c4a11628f55a4df523b3ef",
            "0x000000000000000000000000fd13f52f5b4389e67bd74b60d16d6352117b5138",
            "0x00000000000000000000000030691ec2960332d29f1821970159cd28a50a3285",
            "0x0000000000000000000000000000000000000000000000000000000000000001"
          ],
          "data": "0x",
          "blockHash": "0x8c11974349f98094a402a61031b3574fba40759868d27b4e7f9797c0d0e3c4f5",
          "blockNumber": "0x16b73c4",
          "transactionHash": "0xbeee08ed2e8cad7c8dec63413a4affe2151d66a8dd96a832bb6fa6295c9cde85",
          "transactionIndex": "0x2",
          "logIndex": "0x2",
          "removed": false
        },
        {
          "address": "0x5231e0649c8560a0e3f24fa4ee07f163846b0e2b",
          "topics": [
            "0xef1fb2bd31f5ed737e6054243d9b5eacd3af967f35af45e8fb844ca6dbbe98f9",
            "0x0000000000000000000000000000000000000000000000000000000000000001",
            "0x00000000000000000000000030691ec2960332d29f1821970159cd28a50a3285",
            "0x000000000000000000000000fd13f52f5b4389e67bd74b60d16d6352117b5138"
          ],
          "data": "0x00000000000000000000000000000000000000000000003635c9adc5dea00000",
          "blockHash": "0x8c11974349f98094a402a61031b3574fba40759868d27b4e7f9797c0d0e3c4f5",
          "blockNumber": "0x16b73c4",
          "transactionHash": "0xbeee08ed2e8cad7c8dec63413a4affe2151d66a8dd96a832bb6fa6295c9cde85",
          "transactionIndex": "0x2",
          "logIndex": "0x3",
          "removed": false
        }
      ],
      "logsBloom": "0x00000000000000008000000000000000000000400000000200200000800000000000000000000000000000000000000000000000000000080000000000040002000000000000000000000008000000000000040000140000000000002000000000000000000000000000000000000000000000000000000000000010000400200000000000000000000000000002000000000000000000000000000000000000000000000000000800000000000000000000000000000000001000000000200000000002000000000000000000000000000000001001000000000000000040000000000000200000000000000000000000000001000000010000000000000000",
      "type": "0x2",
      "transactionHash": "0xbeee08ed2e8cad7c8dec63413a4affe2151d66a8dd96a832bb6fa6295c9cde85",
      "transactionIndex": "0x2",
      "blockHash": "0x8c11974349f98094a402a61031b3574fba40759868d27b4e7f9797c0d0e3c4f5",
      "blockNumber": "0x16b73c4",
      "gasUsed": "0x1cba2",
      "effectiveGasPrice": "0x1c3e7807",
      "from": "0x30691ec2960332d29f1821970159cd28a50a3285",
      "to": "0x5231e0649c8560a0e3f24fa4ee07f163846b0e2b",
      "contractAddress": null
    }
  ],
  "libraries": [],
  "pending": [],
  "returns": {},
  "timestamp": 1763387831,
  "chain": 31193,
  "commit": "66b3ce3"
}