{
  "transactions": [
    {
      "hash": "0x8531e40b3489b7eec508a123c9f8b4c95b7186b674876eab7f0e8c96e0a5528e",
      "transactionType": "CALL",
      "contractName": null,
      "contractAddress": "0xc99208d6866c861bd849fc13b0e0e916b131d29e",
      "function": "mint(address,uint256)",
      "arguments": [
        "0x67FE542dF236B12B5632D20936190bBA5995ca73",
        "1010000000000000000000"
      ],
      "transaction": {
        "from": "0x67fe542df236b12b5632d20936190bba5995ca73",
        "to": "0xc99208d6866c861bd849fc13b0e0e916b131d29e",
        "gas": "0x12820",
        "value": "0x0",
        "input": "0x40c10f1900000000000000000000000067fe542df236b12b5632d20936190bba5995ca73000000000000000000000000000000000000000000000036c090d0ca68880000",
        "nonce": "0x0",
        "chainId": "0x79d9"
      },
      "additionalContracts": [],
      "isFixedGasLimit": false
    },
    {
      "hash": "0x595f862999b24487da3c85ea156b08df2bef80588dbd51937e984384af92912e",
      "transactionType": "CALL",
      "contractName": null,
      "contractAddress": "0xc99208d6866c861bd849fc13b0e0e916b131d29e",
      "function": "approve(address,uint256)",
      "arguments": [
        "0x5231E0649C8560A0e3f24fA4ee07F163846b0E2b",
        "1000000000000000000000"
      ],
      "transaction": {
        "from": "0x67fe542df236b12b5632d20936190bba5995ca73",
        "to": "0xc99208d6866c861bd849fc13b0e0e916b131d29e",
        "gas": "0xfd42",
        "value": "0x0",
        "input": "0x095ea7b30000000000000000000000005231e0649c8560a0e3f24fa4ee07f163846b0e2b00000000000000000000000000000000000000000000003635c9adc5dea00000",
        "nonce": "0x1",
        "chainId": "0x79d9"
      },
      "additionalContracts": [],
      "isFixedGasLimit": false
    },
    {
      "hash": "0x97032fa750a62286cd6329fe0aa01f315be97a426de7e0967191aba3e9ff3db2",
      "transactionType": "CALL",
      "contractName": null,
      "contractAddress": "0x5231e0649c8560a0e3f24fa4ee07f163846b0e2b",
      "function": "purchaseNFT(uint256)",
      "arguments": [
        "0"
      ],
      "transaction": {
        "from": "0x67fe542df236b12b5632d20936190bba5995ca73",
        "to": "0x5231e0649c8560a0e3f24fa4ee07f163846b0e2b",
        "gas": "0x3f6a5",
        "value": "0x0",
        "input": "0x150bde030000000000000000000000000000000000000000000000000000000000000000",
        "nonce": "0x2",
        "chainId": "0x79d9"
      },
      "additionalContracts": [],
      "isFixedGasLimit": false
    }
  ],
  "receipts": [
    {
      "status": "0x1",
      "cumulativeGasUsed": "0x1876cec",
      "logs": [
        {
          "address": "0xc99208d6866c861bd849fc13b0e0e916b131d29e",
          "topics": [
            "0xddf252ad1be2c89b69c2b068fc378daa952ba7f163c4a11628f55a4df523b3ef",
            "0x0000000000000000000000000000000000000000000000000000000000000000",
            "0x00000000000000000000000067fe542df236b12b5632d20936190bba5995ca73"
          ],
          "data": "0x000000000000000000000000000000000000000000000036c090d0ca68880000",
          "blockHash": "0x1e7de6c3ae78f6d17a5bd1e3dc86ee450198fbcd4d8fc36d5c0a1fe7124f8c3f",
          "blockNumber": "0x16b73ae",
          "transactionHash": "0x8531e40b3489b7eec508a123c9f8b4c95b7186b674876eab7f0e8c96e0a5528e",
          "transactionIndex": "0x0",
          "logIndex": "0x0",
          "removed": false
        }
      ],
      "logsBloom": "0x00000000000000808000000000000000000000000000000000000000000000000000000000000000000000000000000000000000000000000000000000000000000000004000000000000008000000000000000000000000000000000000000000000000020000000000000000000800000000000000000000000010000000000000000000000000000000000000000000000000000000000000000000000000000000000000000000000000000000000000000000000000000000000000000000000002000000000000000000000000000000000000000000000000000020000000000000000000000000000000000000000001000000010010000000000000",
      "type": "0x2",
      "transactionHash": "0x8531e40b3489b7eec508a123c9f8b4c95b7186b674876eab7f0e8c96e0a5528e",
      "transactionIndex": "0x0",
      "blockHash": "0x1e7de6c3ae78f6d17a5bd1e3dc86ee450198fbcd4d8fc36d5c0a1fe7124f8c3f",
      "blockNumber": "0x16b73ae",
      "gasUsed": "0xca7b",
      "effectiveGasPrice": "0x175ef0ef",
      "from": "0x67fe542df236b12b5632d20936190bba5995ca73",
      "to": "0xc99208d6866c861bd849fc13b0e0e916b131d29e",
      "contractAddress": null
    },
    {
      "status": "0x1",
      "cumulativeGasUsed": "0x18759cd",
      "logs": [
        {
          "address": "0xc99208d6866c861bd849fc13b0e0e916b131d29e",
          "topics": [
            "0x8c5be1e5ebec7d5bd14f71427d1e84f3dd0314c0f7b2291e5b200ac8c7c3b925",
            "0x00000000000000000000000067fe542df236b12b5632d20936190bba5995ca73",
            "0x0000000000000000000000005231e0649c8560a0e3f24fa4ee07f163846b0e2b"
          ],
          "data": "0x00000000000000000000000000000000000000000000003635c9adc5dea00000",
          "blockHash": "0x1e7de6c3ae78f6d17a5bd1e3dc86ee450198fbcd4d8fc36d5c0a1fe7124f8c3f",
          "blockNumber": "0x16b73ae",
          "transactionHash": "0x595f862999b24487da3c85ea156b08df2bef80588dbd51937e984384af92912e",
          "transactionIndex": "0x1",
          "logIndex": "0x0",
          "removed": false
        }
      ],
      "logsBloom": "0x00000000000000808000000000000000000000000000000000000000000000000000000000000000000000000000000000000000000000000000000000200002000000004000000000000000000000000000040000000000000000000000000000000000000000000000000000000000000000000000000000000000000000000000000000000000000000000002000000000000000000000000000000000000020000000000000000000000000000000000000000000000000000000000000000000000000000000000000000000000000000000000000000000000000000000010000000000000000000000000000000000001000000010010000000000000",
      "type": "0x2",
      "transactionHash": "0x595f862999b24487da3c85ea156b08df2bef80588dbd51937e984384af92912e",
      "transactionIndex": "0x1",
      "blockHash": "0x1e7de6c3ae78f6d17a5bd1e3dc86ee450198fbcd4d8fc36d5c0a1fe7124f8c3f",
      "blockNumber": "0x16b73ae",
      "gasUsed": "0xb75c",
      "effectiveGasPrice": "0x175ef0ef",
      "from": "0x67fe542df236b12b5632d20936190bba5995ca73",
      "to": "0xc99208d6866c861bd849fc13b0e0e916b131d29e",
      "contractAddress": null
    },
    {
      "status": "0x1",
      "cumulativeGasUsed": "0x1898107",
      "logs": [
        {
          "address": "0xc99208d6866c861bd849fc13b0e0e916b131d29e",
          "topics": [
            "0xddf252ad1be2c89b69c2b068fc378daa952ba7f163c4a11628f55a4df523b3ef",
            "0x00000000000000000000000067fe542df236b12b5632d20936190bba5995ca73",
            "0x0000000000000000000000005231e0649c8560a0e3f24fa4ee07f163846b0e2b"
          ],
          "data": "0x0000000000000000000000000000000000000000000000008ac7230489e80000",
          "blockHash": "0x1e7de6c3ae78f6d17a5bd1e3dc86ee450198fbcd4d8fc36d5c0a1fe7124f8c3f",
          "blockNumber": "0x16b73ae",
          "transactionHash": "0x97032fa750a62286cd6329fe0aa01f315be97a426de7e0967191aba3e9ff3db2",
          "transactionIndex": "0x2",
          "logIndex": "0x0",
          "removed": false
        },
        {
          "address": "0xc99208d6866c861bd849fc13b0e0e916b131d29e",
          "topics": [
            "0xddf252ad1be2c89b69c2b068fc378daa952ba7f163c4a11628f55a4df523b3ef",
            "0x00000000000000000000000067fe542df236b12b5632d20936190bba5995ca73",
            "0x000000000000000000000000fd13f52f5b4389e67bd74b60d16d6352117b5138"
          ],
          "data": "0x000000000000000000000000000000000000000000000035ab028ac154b80000",
          "blockHash": "0x1e7de6c3ae78f6d17a5bd1e3dc86ee450198fbcd4d8fc36d5c0a1fe7124f8c3f",
          "blockNumber": "0x16b73ae",
          "transactionHash": "0x97032fa750a62286cd6329fe0aa01f315be97a426de7e0967191aba3e9ff3db2",
          "transactionIndex": "0x2",
          "logIndex": "0x1",
          "removed": false
        },
        {
          "address": "0x425c59f0b45b51fd2e440bd451110835ba98c623",
          "topics": [
            "0xddf252ad1be2c89b69c2b068fc378daa952ba7f163c4a11628f55a4df523b3ef",
            "0x000000000000000000000000fd13f52f5b4389e67bd74b60d16d6352117b5138",
            "0x00000000000000000000000067fe542df236b12b5632d20936190bba5995ca73",
            "0x0000000000000000000000000000000000000000000000000000000000000000"
          ],
          "data": "0x",
          "blockHash": "0x1e7de6c3ae78f6d17a5bd1e3dc86ee450198fbcd4d8fc36d5c0a1fe7124f8c3f",
          "blockNumber": "0x16b73ae",
          "transactionHash": "0x97032fa750a62286cd6329fe0aa01f315be97a426de7e0967191aba3e9ff3db2",
          "transactionIndex": "0x2",
          "logIndex": "0x2",
          "removed": false
        },
        {
          "address": "0x5231e0649c8560a0e3f24fa4ee07f163846b0e2b",
          "topics": [
            "0xef1fb2bd31f5ed737e6054243d9b5eacd3af967f35af45e8fb844ca6dbbe98f9",
            "0x0000000000000000000000000000000000000000000000000000000000000000",
            "0x00000000000000000000000067fe542df236b12b5632d20936190bba5995ca73",
            "0x000000000000000000000000fd13f52f5b4389e67bd74b60d16d6352117b5138"
          ],
          "data": "0x00000000000000000000000000000000000000000000003635c9adc5dea00000",
          "blockHash": "0x1e7de6c3ae78f6d17a5bd1e3dc86ee450198fbcd4d8fc36d5c0a1fe7124f8c3f",
          "blockNumber": "0x16b73ae",
          "transactionHash": "0x97032fa750a62286cd6329fe0aa01f315be97a426de7e0967191aba3e9ff3db2",
          "transactionIndex": "0x2",
          "logIndex": "0x3",
          "removed": false
        }
      ],
      "logsBloom": "0x00000000000000808000000000000000000000400000000000200000800000000000000000000000000000000000000000000000000000080000000000000002000000004000000000000008000000000000040000000000000000002000000000000000020000000000000000000800000000000000000000000010000400200000000000000000000000000002000000000000000000000000000000000000000000000000000800000000000000000000000000000000001000000000200000000002000000000000000000000000000000001000000000000000000020000000000000200000000000000000000000000001000000010010000000000000",
      "type": "0x2",
      "transactionHash": "0x97032fa750a62286cd6329fe0aa01f315be97a426de7e0967191aba3e9ff3db2",
      "transactionIndex": "0x2",
      "blockHash": "0x1e7de6c3ae78f6d17a5bd1e3dc86ee450198fbcd4d8fc36d5c0a1fe7124f8c3f",
      "blockNumber": "0x16b73ae",
      "gasUsed": "0x2de96",
      "effectiveGasPrice": "0x175ef0ef",
      "from": "0x67fe542df236b12b5632d20936190bba5995ca73",
      "to": "0x5231e0649c8560a0e3f24fa4ee07f163846b0e2b",
      "contractAddress": null
    }
  ],
  "libraries": [],
  "pending": [],
  "returns": {},
  "timestamp": 1763387561,
  "chain": 31193,
  "commit": "66b3ce3"
}