{
  "transactions": [
    {
      "hash": "0xa49209b90fe487af43fb924c219cd90e13d0d31660b1645f2f63159760ab61a6",
      "transactionType": "CALL",
      "contractName": null,
      "contractAddress": "0x425c59f0b45b51fd2e440bd451110835ba98c623",
      "function": "approve(address,uint256)",
      "arguments": [
        "0x5231E0649C8560A0e3f24fA4ee07F163846b0E2b",
        "0"
      ],
      "transaction": {
        "from": "0xfd13f52f5b4389e67bd74b60d16d6352117b5138",
        "to": "0x425c59f0b45b51fd2e440bd451110835ba98c623",
        "gas": "0x1184e",
        "value": "0x0",
        "input": "0x095ea7b30000000000000000000000005231e0649c8560a0e3f24fa4ee07f163846b0e2b0000000000000000000000000000000000000000000000000000000000000000",
        "nonce": "0x4",
        "chainId": "0x79d9"
      },
      "additionalContracts": [],
      "isFixedGasLimit": false
    },
    {
      "hash": "0x9ddd94b6d9306f1710a64c51804e7991f0b0368ecc935ed9769490b178c9c5a5",
      "transactionType": "CALL",
      "contractName": null,
      "contractAddress": "0x5231e0649c8560a0e3f24fa4ee07f163846b0e2b",
      "function": "listNFT(uint256,uint256)",
      "arguments": [
        "0",
        "1000000000000000000000"
      ],
      "transaction": {
        "from": "0xfd13f52f5b4389e67bd74b60d16d6352117b5138",
        "to": "0x5231e0649c8560a0e3f24fa4ee07f163846b0e2b",
        "gas": "0x29baf",
        "value": "0x0",
        "input": "0x94383f14000000000000000000000000000000000000000000000000000000000000000000000000000000000000000000000000000000000000003635c9adc5dea00000",
        "nonce": "0x5",
        "chainId": "0x79d9"
      },
      "additionalContracts": [],
      "isFixedGasLimit": false
    }
  ],
  "receipts": [
    {
      "status": "0x1",
      "cumulativeGasUsed": "0x11304a7",
      "logs": [
        {
          "address": "0x425c59f0b45b51fd2e440bd451110835ba98c623",
          "topics": [
            "0x8c5be1e5ebec7d5bd14f71427d1e84f3dd0314c0f7b2291e5b200ac8c7c3b925",
            "0x000000000000000000000000fd13f52f5b4389e67bd74b60d16d6352117b5138",
            "0x0000000000000000000000005231e0649c8560a0e3f24fa4ee07f163846b0e2b",
            "0x0000000000000000000000000000000000000000000000000000000000000000"
          ],
          "data": "0x",
          "blockHash": "0xfeb725472a98e95eeb8b53dbf25ccbabb5830c1ff0857b8c7a66d797b9285581",
          "blockNumber": "0x16b73a6",
          "transactionHash": "0xa49209b90fe487af43fb924c219cd90e13d0d31660b1645f2f63159760ab61a6",
          "transactionIndex": "0x0",
          "logIndex": "0x0",
          "removed": false
        }
      ],
      "logsBloom": "0x00000000000000000000000000000000000000000000000000000000000000000000000000000000000000000000000000000000000000080000000000200002000000000000000000000000000000000000040000000000000000000000000000000000020000000000000000000800000000000000000000000000000400200000000000000000000000000002000000000000000000000000000000000000020000000000000000000000000000000000000000000000001000000000200000000000000000000000000000000000000000000000000000000000000020000010000000200000000000000000000000000000000000000000000000000000",
      "type": "0x2",
      "transactionHash": "0xa49209b90fe487af43fb924c219cd90e13d0d31660b1645f2f63159760ab61a6",
      "transactionIndex": "0x0",
      "blockHash": "0xfeb725472a98e95eeb8b53dbf25ccbabb5830c1ff0857b8c7a66d797b9285581",
      "blockNumber": "0x16b73a6",
      "gasUsed": "0xbfaa",
      "effectiveGasPrice": "0x130b3d62",
      "from": "0xfd13f52f5b4389e67bd74b60d16d6352117b5138",
      "to": "0x425c59f0b45b51fd2e440bd451110835ba98c623",
      "contractAddress": null
    },
    {
      "status": "0x1",
      "cumulativeGasUsed": "0x1142862",
      "logs": [
        {
          "address": "0x5231e0649c8560a0e3f24fa4ee07f163846b0e2b",
          "topics": [
            "0x5f9c03de076f5063cd3ebcfe8ef7aa8af378e4b35a83c77ba9777e97083879a2",
            "0x0000000000000000000000000000000000000000000000000000000000000000",
            "0x000000000000000000000000fd13f52f5b4389e67bd74b60d16d6352117b5138"
          ],
          "data": "0x00000000000000000000000000000000000000000000003635c9adc5dea00000",
          "blockHash": "0xfeb725472a98e95eeb8b53dbf25ccbabb5830c1ff0857b8c7a66d797b9285581",
          "blockNumber": "0x16b73a6",
          "transactionHash": "0x9ddd94b6d9306f1710a64c51804e7991f0b0368ecc935ed9769490b178c9c5a5",
          "transactionIndex": "0x1",
          "logIndex": "0x0",
          "removed": false
        }
      ],
      "logsBloom": "0x00000000000000000000000000000000000000000000000000000000800000000000000000000000000000000000000400000000000000000000000000000000000000000000000000000000000000000000000000000000000000000000000000000000020002000000000000000800000000000000000000000000000400200000000000000000000000000000000000000000000000000000000000000000000000000000000800000000000000000000000000000000000000000000200000000000000000000000000000000000000000001200000000000000000020000000000000000000000000000000000000000000000000000000000000000000",
      "type": "0x2",
      "transactionHash": "0x9ddd94b6d9306f1710a64c51804e7991f0b0368ecc935ed9769490b178c9c5a5",
      "transactionIndex": "0x1",
      "blockHash": "0xfeb725472a98e95eeb8b53dbf25ccbabb5830c1ff0857b8c7a66d797b9285581",
      "blockNumber": "0x16b73a6",
      "gasUsed": "0x1e365",
      "effectiveGasPrice": "0x130b3d62",
      "from": "0xfd13f52f5b4389e67bd74b60d16d6352117b5138",
      "to": "0x5231e0649c8560a0e3f24fa4ee07f163846b0e2b",
      "contractAddress": null
    }
  ],
  "libraries": [],
  "pending": [],
  "returns": {},
  "timestamp": 1763387462,
  "chain": 31193,
  "commit": "66b3ce3"
}