{
  "transactions": [
    {
      "hash": "0xa7e25bb305117876529203508157a2c85fdca070a1bdfb3fc751cc626c0e720c",
      "transactionType": "CALL",
      "contractName": null,
      "contractAddress": "0x205fbaa9320272544ed08adab55a0501850ef330",
      "function": "mint(address)",
      "arguments": [
        "0x4FD190a87d84809e13AC9D8a90021d06C017e954"
      ],
      "transaction": {
        "from": "0x4fd190a87d84809e13ac9d8a90021d06c017e954",
        "to": "0x205fbaa9320272544ed08adab55a0501850ef330",
        "gas": "0x13695",
        "value": "0x0",
        "input": "0x6a6278420000000000000000000000004fd190a87d84809e13ac9d8a90021d06c017e954",
        "nonce": "0xe",
        "chainId": "0xdd0"
      },
      "additionalContracts": [],
      "isFixedGasLimit": false
    },
    {
      "hash": "0x7d86e44ff953c5cb67a1190a03ca0ad68ad40d4431834ed99babbf5e1c1f6ecc",
      "transactionType": "CALL",
      "contractName": null,
      "contractAddress": "0x205fbaa9320272544ed08adab55a0501850ef330",
      "function": "approve(address,uint256)",
      "arguments": [
        "0x192654C05f9165903BB1F625EbF94E808037800A",
        "5"
      ],
      "transaction": {
        "from": "0x4fd190a87d84809e13ac9d8a90021d06c017e954",
        "to": "0x205fbaa9320272544ed08adab55a0501850ef330",
        "gas": "0x108cc",
        "value": "0x0",
        "input": "0x095ea7b3000000000000000000000000192654c05f9165903bb1f625ebf94e808037800a0000000000000000000000000000000000000000000000000000000000000005",
        "nonce": "0xf",
        "chainId": "0xdd0"
      },
      "additionalContracts": [],
      "isFixedGasLimit": false
    },
    {
      "hash": "0xf5f549bcfb77261c6e07f03fe7fcce08e56edc79e6ba1b924842f1694358a543",
      "transactionType": "CALL",
      "contractName": null,
      "contractAddress": "0x192654c05f9165903bb1f625ebf94e808037800a",
      "function": "listNFT(uint256,uint256)",
      "arguments": [
        "5",
        "1000000000000000000000"
      ],
      "transaction": {
        "from": "0x4fd190a87d84809e13ac9d8a90021d06c017e954",
        "to": "0x192654c05f9165903bb1f625ebf94e808037800a",
        "gas": "0x2aa60",
        "value": "0x0",
        "input": "0x94383f14000000000000000000000000000000000000000000000000000000000000000500000000000000000000000000000000000000000000003635c9adc5dea00000",
        "nonce": "0x10",
        "chainId": "0xdd0"
      },
      "additionalContracts": [],
      "isFixedGasLimit": false
    }
  ],
  "receipts": [
    {
      "status": "0x1",
      "cumulativeGasUsed": "0xf81530",
      "logs": [
        {
          "address": "0x205fbaa9320272544ed08adab55a0501850ef330",
          "topics": [
            "0xddf252ad1be2c89b69c2b068fc378daa952ba7f163c4a11628f55a4df523b3ef",
            "0x0000000000000000000000000000000000000000000000000000000000000000",
            "0x0000000000000000000000004fd190a87d84809e13ac9d8a90021d06c017e954",
            "0x0000000000000000000000000000000000000000000000000000000000000005"
          ],
          "data": "0x",
          "blockHash": "0xf9bbd41ea00ad05b3febd20abbd591cdf88a2c0cc4329b46640ce17fea8a1666",
          "blockNumber": "0x16b633d",
          "transactionHash": "0xa7e25bb305117876529203508157a2c85fdca070a1bdfb3fc751cc626c0e720c",
          "transactionIndex": "0x0",
          "logIndex": "0x0",
          "removed": false
        }
      ],
      "logsBloom": "0x00000000000000000000000000000000100000000000000000000000000000000000000000000000000000000000000000000000000000000000000000000000000010000000000000000008000000000000000000000000000000000000000000000000020000000000000000000800008000000000000000020010000204000000000000000000000000000000001000000800000000000000000000000000000000000000000000000000000000000000020000000000000000000000000000000002000000000000000000000000000000000000000000000000000020000000000000000000000000000000000000000000000000000000000000000000",
      "type": "0x2",
      "transactionHash": "0xa7e25bb305117876529203508157a2c85fdca070a1bdfb3fc751cc626c0e720c",
      "transactionIndex": "0x0",
      "blockHash": "0xf9bbd41ea00ad05b3febd20abbd591cdf88a2c0cc4329b46640ce17fea8a1666",
      "blockNumber": "0x16b633d",
      "gasUsed": "0xe0dc",
      "effectiveGasPrice": "0x15b7b4bd",
      "from": "0x4fd190a87d84809e13ac9d8a90021d06c017e954",
      "to": "0x205fbaa9320272544ed08adab55a0501850ef330",
      "contractAddress": null
    },
    {
      "status": "0x1",
      "cumulativeGasUsed": "0xf7f40a",
      "logs": [
        {
          "address": "0x205fbaa9320272544ed08adab55a0501850ef330",
          "topics": [
            "0x8c5be1e5ebec7d5bd14f71427d1e84f3dd0314c0f7b2291e5b200ac8c7c3b925",
            "0x0000000000000000000000004fd190a87d84809e13ac9d8a90021d06c017e954",
            "0x000000000000000000000000192654c05f9165903bb1f625ebf94e808037800a",
            "0x0000000000000000000000000000000000000000000000000000000000000005"
          ],
          "data": "0x",
          "blockHash": "0xf9bbd41ea00ad05b3febd20abbd591cdf88a2c0cc4329b46640ce17fea8a1666",
          "blockNumber": "0x16b633d",
          "transactionHash": "0x7d86e44ff953c5cb67a1190a03ca0ad68ad40d4431834ed99babbf5e1c1f6ecc",
          "transactionIndex": "0x1",
          "logIndex": "0x0",
          "removed": false
        }
      ],
      "logsBloom": "0x00000000000000000000000000000000100000000000000000000000000000000000000000000000000000000000000000000000000000000000010000200000000010000000000000000000000000000000000000000000000000000000000000000000000000000000000000000000008000000000000000020000000204000000000000000000000000000000001000000800000000000000000000000040020000000000000000000000000000000000020000000000000000000000000000000000000000000000000000040000000000000000000000000000000000000010000000000000000000000000000000000000000000000000000000000000",
      "type": "0x2",
      "transactionHash": "0x7d86e44ff953c5cb67a1190a03ca0ad68ad40d4431834ed99babbf5e1c1f6ecc",
      "transactionIndex": "0x1",
      "blockHash": "0xf9bbd41ea00ad05b3febd20abbd591cdf88a2c0cc4329b46640ce17fea8a1666",
      "blockNumber": "0x16b633d",
      "gasUsed": "0xbfb6",
      "effectiveGasPrice": "0x15b7b4bd",
      "from": "0x4fd190a87d84809e13ac9d8a90021d06c017e954",
      "to": "0x205fbaa9320272544ed08adab55a0501850ef330",
      "contractAddress": null
    },
    {
      "status": "0x1",
      "cumulativeGasUsed": "0xf9225c",
      "logs": [
        {
          "address": "0x192654c05f9165903bb1f625ebf94e808037800a",
          "topics": [
            "0x5f9c03de076f5063cd3ebcfe8ef7aa8af378e4b35a83c77ba9777e97083879a2",
            "0x0000000000000000000000000000000000000000000000000000000000000005",
            "0x0000000000000000000000004fd190a87d84809e13ac9d8a90021d06c017e954"
          ],
          "data": "0x00000000000000000000000000000000000000000000003635c9adc5dea00000",
          "blockHash": "0xf9bbd41ea00ad05b3febd20abbd591cdf88a2c0cc4329b46640ce17fea8a1666",
          "blockNumber": "0x16b633d",
          "transactionHash": "0xf5f549bcfb77261c6e07f03fe7fcce08e56edc79e6ba1b924842f1694358a543",
          "transactionIndex": "0x2",
          "logIndex": "0x0",
          "removed": false
        }
      ],
      "logsBloom": "0x00002000001000000000000000000000100000000000000000000000000000000000000000000000000000000000000400000000000000000000000000000000000010000000000000000000000000000000000000000000000000000000000000000000000002000000000000000000000000000000000000020000000000000000000000000000000000000000001000000800000000000000000000000000000000000000000000000000000000000000020000000000000000000000000000000000000000000000000000000000000000000200000000000000000000000000000000000000000000000000000000000000000000000000000040000000",
      "type": "0x2",
      "transactionHash": "0xf5f549bcfb77261c6e07f03fe7fcce08e56edc79e6ba1b924842f1694358a543",
      "transactionIndex": "0x2",
      "blockHash": "0xf9bbd41ea00ad05b3febd20abbd591cdf88a2c0cc4329b46640ce17fea8a1666",
      "blockNumber": "0x16b633d",
      "gasUsed": "0x1ee08",
      "effectiveGasPrice": "0x15b7b4bd",
      "from": "0x4fd190a87d84809e13ac9d8a90021d06c017e954",
      "to": "0x192654c05f9165903bb1f625ebf94e808037800a",
      "contractAddress": null
    }
  ],
  "libraries": [],
  "pending": [],
  "returns": {},
  "timestamp": 1763336769,
  "chain": 3536,
  "commit": "f862084"
}