{
  "transactions": [
    {
      "hash": "0xd759e13d0c27bc04c8606b93bd293d720570b71fa37a041033c83fb3e877d325",
      "transactionType": "CALL",
      "contractName": null,
      "contractAddress": "0x205fbaa9320272544ed08adab55a0501850ef330",
      "function": "mint(address)",
      "arguments": [
        "0x4FD190a87d84809e13AC9D8a90021d06C017e954"
      ],
      "transaction": {
        "from": "0x4fd190a87d84809e13ac9d8a90021d06c017e954",
        "to": "0x205fbaa9320272544ed08adab55a0501850ef330",
        "gas": "0x13695",
        "value": "0x0",
        "input": "0x6a6278420000000000000000000000004fd190a87d84809e13ac9d8a90021d06c017e954",
        "nonce": "0x1d",
        "chainId": "0xdd0"
      },
      "additionalContracts": [],
      "isFixedGasLimit": false
    },
    {
      "hash": "0x160e22d7a4399e44a0867c390a1c40fa3f8dce82f801152dca98a326d9f7cd4e",
      "transactionType": "CALL",
      "contractName": null,
      "contractAddress": "0x205fbaa9320272544ed08adab55a0501850ef330",
      "function": "approve(address,uint256)",
      "arguments": [
        "0x192654C05f9165903BB1F625EbF94E808037800A",
        "10"
      ],
      "transaction": {
        "from": "0x4fd190a87d84809e13ac9d8a90021d06c017e954",
        "to": "0x205fbaa9320272544ed08adab55a0501850ef330",
        "gas": "0x108cc",
        "value": "0x0",
        "input": "0x095ea7b3000000000000000000000000192654c05f9165903bb1f625ebf94e808037800a000000000000000000000000000000000000000000000000000000000000000a",
        "nonce": "0x1e",
        "chainId": "0xdd0"
      },
      "additionalContracts": [],
      "isFixedGasLimit": false
    },
    {
      "hash": "0x3e8330a641b77100af252fd6e2cd25b0849d8053257986014110f7ae73e3906a",
      "transactionType": "CALL",
      "contractName": null,
      "contractAddress": "0x192654c05f9165903bb1f625ebf94e808037800a",
      "function": "listNFT(uint256,uint256)",
      "arguments": [
        "10",
        "1000000000000000000000"
      ],
      "transaction": {
        "from": "0x4fd190a87d84809e13ac9d8a90021d06c017e954",
        "to": "0x192654c05f9165903bb1f625ebf94e808037800a",
        "gas": "0x2aa60",
        "value": "0x0",
        "input": "0x94383f14000000000000000000000000000000000000000000000000000000000000000a00000000000000000000000000000000000000000000003635c9adc5dea00000",
        "nonce": "0x1f",
        "chainId": "0xdd0"
      },
      "additionalContracts": [],
      "isFixedGasLimit": false
    }
  ],
  "receipts": [
    {
      "status": "0x1",
      "cumulativeGasUsed": "0xf457de",
      "logs": [
        {
          "address": "0x205fbaa9320272544ed08adab55a0501850ef330",
          "topics": [
            "0xddf252ad1be2c89b69c2b068fc378daa952ba7f163c4a11628f55a4df523b3ef",
            "0x0000000000000000000000000000000000000000000000000000000000000000",
            "0x0000000000000000000000004fd190a87d84809e13ac9d8a90021d06c017e954",
            "0x000000000000000000000000000000000000000000000000000000000000000a"
          ],
          "data": "0x",
          "blockHash": "0x460a457d140520b03b13156242f963ee5c109b01d965336e9b4b4edad09a496a",
          "blockNumber": "0x16b639b",
          "transactionHash": "0xd759e13d0c27bc04c8606b93bd293d720570b71fa37a041033c83fb3e877d325",
          "transactionIndex": "0x0",
          "logIndex": "0x0",
          "removed": false
        }
      ],
      "logsBloom": "0x00000000000000000000000000000000100000000000000000000000000000000000000000000000000000000000000000000000040000000020000000000000000000000000000000000008000000000000000000000000000000000000000000000000020000000000000000000800008000000000000000020010000204000000000000000000010000000000000000000000000000000000000000000000000000000000000000000000000000000000020000000000000000000000000000000002000000000000000000000000000000000000000000000000000020000000000000000000000000000000000000000000000000000000000000000000",
      "type": "0x2",
      "transactionHash": "0xd759e13d0c27bc04c8606b93bd293d720570b71fa37a041033c83fb3e877d325",
      "transactionIndex": "0x0",
      "blockHash": "0x460a457d140520b03b13156242f963ee5c109b01d965336e9b4b4edad09a496a",
      "blockNumber": "0x16b639b",
      "gasUsed": "0xe0dc",
      "effectiveGasPrice": "0x9f924f5",
      "from": "0x4fd190a87d84809e13ac9d8a90021d06c017e954",
      "to": "0x205fbaa9320272544ed08adab55a0501850ef330",
      "contractAddress": null
    },
    {
      "status": "0x1",
      "cumulativeGasUsed": "0xf436b8",
      "logs": [
        {
          "address": "0x205fbaa9320272544ed08adab55a0501850ef330",
          "topics": [
            "0x8c5be1e5ebec7d5bd14f71427d1e84f3dd0314c0f7b2291e5b200ac8c7c3b925",
            "0x0000000000000000000000004fd190a87d84809e13ac9d8a90021d06c017e954",
            "0x000000000000000000000000192654c05f9165903bb1f625ebf94e808037800a",
            "0x000000000000000000000000000000000000000000000000000000000000000a"
          ],
          "data": "0x",
          "blockHash": "0x460a457d140520b03b13156242f963ee5c109b01d965336e9b4b4edad09a496a",
          "blockNumber": "0x16b639b",
          "transactionHash": "0x160e22d7a4399e44a0867c390a1c40fa3f8dce82f801152dca98a326d9f7cd4e",
          "transactionIndex": "0x1",
          "logIndex": "0x0",
          "removed": false
        }
      ],
      "logsBloom": "0x00000000000000000000000000000000100000000000000000000000000000000000000000000000000000000000000000000000040000000020010000200000000000000000000000000000000000000000000000000000000000000000000000000000000000000000000000000000008000000000000000020000000204000000000000000000010000000000000000000000000000000000000000000040020000000000000000000000000000000000020000000000000000000000000000000000000000000000000000040000000000000000000000000000000000000010000000000000000000000000000000000000000000000000000000000000",
      "type": "0x2",
      "transactionHash": "0x160e22d7a4399e44a0867c390a1c40fa3f8dce82f801152dca98a326d9f7cd4e",
      "transactionIndex": "0x1",
      "blockHash": "0x460a457d140520b03b13156242f963ee5c109b01d965336e9b4b4edad09a496a",
      "blockNumber": "0x16b639b",
      "gasUsed": "0xbfb6",
      "effectiveGasPrice": "0x9f924f5",
      "from": "0x4fd190a87d84809e13ac9d8a90021d06c017e954",
      "to": "0x205fbaa9320272544ed08adab55a0501850ef330",
      "contractAddress": null
    },
    {
      "status": "0x1",
      "cumulativeGasUsed": "0xf5650a",
      "logs": [
        {
          "address": "0x192654c05f9165903bb1f625ebf94e808037800a",
          "topics": [
            "0x5f9c03de076f5063cd3ebcfe8ef7aa8af378e4b35a83c77ba9777e97083879a2",
            "0x000000000000000000000000000000000000000000000000000000000000000a",
            "0x0000000000000000000000004fd190a87d84809e13ac9d8a90021d06c017e954"
          ],
          "data": "0x00000000000000000000000000000000000000000000003635c9adc5dea00000",
          "blockHash": "0x460a457d140520b03b13156242f963ee5c109b01d965336e9b4b4edad09a496a",
          "blockNumber": "0x16b639b",
          "transactionHash": "0x3e8330a641b77100af252fd6e2cd25b0849d8053257986014110f7ae73e3906a",
          "transactionIndex": "0x2",
          "logIndex": "0x0",
          "removed": false
        }
      ],
      "logsBloom": "0x00002000001000000000000000000000100000000000000000000000000000000000000000000000000000000000000400000000040000000020000000000000000000000000000000000000000000000000000000000000000000000000000000000000000002000000000000000000000000000000000000020000000000000000000000000000010000000000000000000000000000000000000000000000000000000000000000000000000000000000020000000000000000000000000000000000000000000000000000000000000000000200000000000000000000000000000000000000000000000000000000000000000000000000000040000000",
      "type": "0x2",
      "transactionHash": "0x3e8330a641b77100af252fd6e2cd25b0849d8053257986014110f7ae73e3906a",
      "transactionIndex": "0x2",
      "blockHash": "0x460a457d140520b03b13156242f963ee5c109b01d965336e9b4b4edad09a496a",
      "blockNumber": "0x16b639b",
      "gasUsed": "0x1ee08",
      "effectiveGasPrice": "0x9f924f5",
      "from": "0x4fd190a87d84809e13ac9d8a90021d06c017e954",
      "to": "0x192654c05f9165903bb1f625ebf94e808037800a",
      "contractAddress": null
    }
  ],
  "libraries": [],
  "pending": [],
  "returns": {},
  "timestamp": 1763337904,
  "chain": 3536,
  "commit": "f862084"
}