{
  "transactions": [
    {
      "hash": "0xdadc7de17e5a86fff035aed46be935e8e35a455cb1f34c8732b8e7dd0bc1a5c1",
      "transactionType": "CALL",
      "contractName": null,
      "contractAddress": "0x205fbaa9320272544ed08adab55a0501850ef330",
      "function": "mint(address)",
      "arguments": [
        "0x4FD190a87d84809e13AC9D8a90021d06C017e954"
      ],
      "transaction": {
        "from": "0x4fd190a87d84809e13ac9d8a90021d06c017e954",
        "to": "0x205fbaa9320272544ed08adab55a0501850ef330",
        "gas": "0x192d9",
        "value": "0x0",
        "input": "0x6a6278420000000000000000000000004fd190a87d84809e13ac9d8a90021d06c017e954",
        "nonce": "0x5",
        "chainId": "0xdd0"
      },
      "additionalContracts": [],
      "isFixedGasLimit": false
    },
    {
      "hash": "0x6c029b479aa2a2849b7e06fb0902b75307cb3659795a5f4cd6e1864ba3c00252",
      "transactionType": "CALL",
      "contractName": null,
      "contractAddress": "0x205fbaa9320272544ed08adab55a0501850ef330",
      "function": "approve(address,uint256)",
      "arguments": [
        "0x192654C05f9165903BB1F625EbF94E808037800A",
        "2"
      ],
      "transaction": {
        "from": "0x4fd190a87d84809e13ac9d8a90021d06c017e954",
        "to": "0x205fbaa9320272544ed08adab55a0501850ef330",
        "gas": "0x108cc",
        "value": "0x0",
        "input": "0x095ea7b3000000000000000000000000192654c05f9165903bb1f625ebf94e808037800a0000000000000000000000000000000000000000000000000000000000000002",
        "nonce": "0x6",
        "chainId": "0xdd0"
      },
      "additionalContracts": [],
      "isFixedGasLimit": false
    },
    {
      "hash": "0xc6d47edaf2c15f71e4c04238510a754ebfaf1da59d98f2e841b761bd39983d92",
      "transactionType": "CALL",
      "contractName": null,
      "contractAddress": "0x192654c05f9165903bb1f625ebf94e808037800a",
      "function": "listNFT(uint256,uint256)",
      "arguments": [
        "2",
        "1000000000000000000000"
      ],
      "transaction": {
        "from": "0x4fd190a87d84809e13ac9d8a90021d06c017e954",
        "to": "0x192654c05f9165903bb1f625ebf94e808037800a",
        "gas": "0x306a4",
        "value": "0x0",
        "input": "0x94383f14000000000000000000000000000000000000000000000000000000000000000200000000000000000000000000000000000000000000003635c9adc5dea00000",
        "nonce": "0x7",
        "chainId": "0xdd0"
      },
      "additionalContracts": [],
      "isFixedGasLimit": false
    }
  ],
  "receipts": [
    {
      "status": "0x1",
      "cumulativeGasUsed": "0x1571df2",
      "logs": [
        {
          "address": "0x205fbaa9320272544ed08adab55a0501850ef330",
          "topics": [
            "0xddf252ad1be2c89b69c2b068fc378daa952ba7f163c4a11628f55a4df523b3ef",
            "0x0000000000000000000000000000000000000000000000000000000000000000",
            "0x0000000000000000000000004fd190a87d84809e13ac9d8a90021d06c017e954",
            "0x0000000000000000000000000000000000000000000000000000000000000002"
          ],
          "data": "0x",
          "blockHash": "0xcae220fe145b7932f93d289cc45ee5af5745369854e09237af3db6d0938bf640",
          "blockNumber": "0x16b6334",
          "transactionHash": "0xdadc7de17e5a86fff035aed46be935e8e35a455cb1f34c8732b8e7dd0bc1a5c1",
          "transactionIndex": "0x0",
          "logIndex": "0x0",
          "removed": false
        }
      ],
      "logsBloom": "0x04000000000000000000000000000000100000000000000000000000000000000000000000000000000000000000000000000000000000000000000000000000000000000000000000000008000000000000000000000000000000000000000000000000020000000000000000000800008000000000000000020010000204000000000000000000000000000000000000000000000000000000000000000000000000000000000000000100000000000000020000000000000000000000000000000002000000000000000000000000000000000000000000000000000020000000000000000000000000000000000000000000008000000000000000000000",
      "type": "0x2",
      "transactionHash": "0xdadc7de17e5a86fff035aed46be935e8e35a455cb1f34c8732b8e7dd0bc1a5c1",
      "transactionIndex": "0x0",
      "blockHash": "0xcae220fe145b7932f93d289cc45ee5af5745369854e09237af3db6d0938bf640",
      "blockNumber": "0x16b6334",
      "gasUsed": "0x123a8",
      "effectiveGasPrice": "0x18ae5153",
      "from": "0x4fd190a87d84809e13ac9d8a90021d06c017e954",
      "to": "0x205fbaa9320272544ed08adab55a0501850ef330",
      "contractAddress": null
    },
    {
      "status": "0x1",
      "cumulativeGasUsed": "0x156ba00",
      "logs": [
        {
          "address": "0x205fbaa9320272544ed08adab55a0501850ef330",
          "topics": [
            "0x8c5be1e5ebec7d5bd14f71427d1e84f3dd0314c0f7b2291e5b200ac8c7c3b925",
            "0x0000000000000000000000004fd190a87d84809e13ac9d8a90021d06c017e954",
            "0x000000000000000000000000192654c05f9165903bb1f625ebf94e808037800a",
            "0x0000000000000000000000000000000000000000000000000000000000000002"
          ],
          "data": "0x",
          "blockHash": "0xcae220fe145b7932f93d289cc45ee5af5745369854e09237af3db6d0938bf640",
          "blockNumber": "0x16b6334",
          "transactionHash": "0x6c029b479aa2a2849b7e06fb0902b75307cb3659795a5f4cd6e1864ba3c00252",
          "transactionIndex": "0x1",
          "logIndex": "0x0",
          "removed": false
        }
      ],
      "logsBloom": "0x04000000000000000000000000000000100000000000000000000000000000000000000000000000000000000000000000000000000000000000010000200000000000000000000000000000000000000000000000000000000000000000000000000000000000000000000000000000008000000000000000020000000204000000000000000000000000000000000000000000000000000000000000000040020000000000000000000100000000000000020000000000000000000000000000000000000000000000000000040000000000000000000000000000000000000010000000000000000000000000000000000000008000000000000000000000",
      "type": "0x2",
      "transactionHash": "0x6c029b479aa2a2849b7e06fb0902b75307cb3659795a5f4cd6e1864ba3c00252",
      "transactionIndex": "0x1",
      "blockHash": "0xcae220fe145b7932f93d289cc45ee5af5745369854e09237af3db6d0938bf640",
      "blockNumber": "0x16b6334",
      "gasUsed": "0xbfb6",
      "effectiveGasPrice": "0x18ae5153",
      "from": "0x4fd190a87d84809e13ac9d8a90021d06c017e954",
      "to": "0x205fbaa9320272544ed08adab55a0501850ef330",
      "contractAddress": null
    },
    {
      "status": "0x1",
      "cumulativeGasUsed": "0x1582b1e",
      "logs": [
        {
          "address": "0x192654c05f9165903bb1f625ebf94e808037800a",
          "topics": [
            "0x5f9c03de076f5063cd3ebcfe8ef7aa8af378e4b35a83c77ba9777e97083879a2",
            "0x0000000000000000000000000000000000000000000000000000000000000002",
            "0x0000000000000000000000004fd190a87d84809e13ac9d8a90021d06c017e954"
          ],
          "data": "0x00000000000000000000000000000000000000000000003635c9adc5dea00000",
          "blockHash": "0xcae220fe145b7932f93d289cc45ee5af5745369854e09237af3db6d0938bf640",
          "blockNumber": "0x16b6334",
          "transactionHash": "0xc6d47edaf2c15f71e4c04238510a754ebfaf1da59d98f2e841b761bd39983d92",
          "transactionIndex": "0x2",
          "logIndex": "0x0",
          "removed": false
        }
      ],
      "logsBloom": "0x04002000001000000000000000000000100000000000000000000000000000000000000000000000000000000000000400000000000000000000000000000000000000000000000000000000000000000000000000000000000000000000000000000000000002000000000000000000000000000000000000020000000000000000000000000000000000000000000000000000000000000000000000000000000000000000000000000100000000000000020000000000000000000000000000000000000000000000000000000000000000000200000000000000000000000000000000000000000000000000000000000000008000000000000040000000",
      "type": "0x2",
      "transactionHash": "0xc6d47edaf2c15f71e4c04238510a754ebfaf1da59d98f2e841b761bd39983d92",
      "transactionIndex": "0x2",
      "blockHash": "0xcae220fe145b7932f93d289cc45ee5af5745369854e09237af3db6d0938bf640",
      "blockNumber": "0x16b6334",
      "gasUsed": "0x230d4",
      "effectiveGasPrice": "0x18ae5153",
      "from": "0x4fd190a87d84809e13ac9d8a90021d06c017e954",
      "to": "0x192654c05f9165903bb1f625ebf94e808037800a",
      "contractAddress": null
    }
  ],
  "libraries": [],
  "pending": [],
  "returns": {},
  "timestamp": 1763336659,
  "chain": 3536,
  "commit": "f862084"
}