{
  "transactions": [
    {
      "hash": "0x48cc60b563c0e2d9e7bc34970a3d63043d0814d5fd0c7a3c8ad7f43e9dafc5bb",
      "transactionType": "CALL",
      "contractName": null,
      "contractAddress": "0x205fbaa9320272544ed08adab55a0501850ef330",
      "function": "mint(address)",
      "arguments": [
        "0x4FD190a87d84809e13AC9D8a90021d06C017e954"
      ],
      "transaction": {
        "from": "0x4fd190a87d84809e13ac9d8a90021d06c017e954",
        "to": "0x205fbaa9320272544ed08adab55a0501850ef330",
        "gas": "0x13695",
        "value": "0x0",
        "input": "0x6a6278420000000000000000000000004fd190a87d84809e13ac9d8a90021d06c017e954",
        "nonce": "0x2f",
        "chainId": "0xdd0"
      },
      "additionalContracts": [],
      "isFixedGasLimit": false
    },
    {
      "hash": "0x952a17219eaf6b77ca599298910cc07d58ff7337d1437ba93e29e8549bb66356",
      "transactionType": "CALL",
      "contractName": null,
      "contractAddress": "0x205fbaa9320272544ed08adab55a0501850ef330",
      "function": "approve(address,uint256)",
      "arguments": [
        "0x192654C05f9165903BB1F625EbF94E808037800A",
        "16"
      ],
      "transaction": {
        "from": "0x4fd190a87d84809e13ac9d8a90021d06c017e954",
        "to": "0x205fbaa9320272544ed08adab55a0501850ef330",
        "gas": "0x108cc",
        "value": "0x0",
        "input": "0x095ea7b3000000000000000000000000192654c05f9165903bb1f625ebf94e808037800a0000000000000000000000000000000000000000000000000000000000000010",
        "nonce": "0x30",
        "chainId": "0xdd0"
      },
      "additionalContracts": [],
      "isFixedGasLimit": false
    },
    {
      "hash": "0xe84e223d6b0ab877a53bb774c3b30ae6ab73a4e268e484713b65b0273f112db5",
      "transactionType": "CALL",
      "contractName": null,
      "contractAddress": "0x192654c05f9165903bb1f625ebf94e808037800a",
      "function": "listNFT(uint256,uint256)",
      "arguments": [
        "16",
        "1000000000000000000000"
      ],
      "transaction": {
        "from": "0x4fd190a87d84809e13ac9d8a90021d06c017e954",
        "to": "0x192654c05f9165903bb1f625ebf94e808037800a",
        "gas": "0x2aa60",
        "value": "0x0",
        "input": "0x94383f14000000000000000000000000000000000000000000000000000000000000001000000000000000000000000000000000000000000000003635c9adc5dea00000",
        "nonce": "0x31",
        "chainId": "0xdd0"
      },
      "additionalContracts": [],
      "isFixedGasLimit": false
    }
  ],
  "receipts": [
    {
      "status": "0x1",
      "cumulativeGasUsed": "0x14971fb",
      "logs": [
        {
          "address": "0x205fbaa9320272544ed08adab55a0501850ef330",
          "topics": [
            "0xddf252ad1be2c89b69c2b068fc378daa952ba7f163c4a11628f55a4df523b3ef",
            "0x0000000000000000000000000000000000000000000000000000000000000000",
            "0x0000000000000000000000004fd190a87d84809e13ac9d8a90021d06c017e954",
            "0x0000000000000000000000000000000000000000000000000000000000000010"
          ],
          "data": "0x",
          "blockHash": "0x909a122b790d3c56c8f4ad926088e1e837decf20379843c6042463f4db807e3a",
          "blockNumber": "0x16b63eb",
          "transactionHash": "0x48cc60b563c0e2d9e7bc34970a3d63043d0814d5fd0c7a3c8ad7f43e9dafc5bb",
          "transactionIndex": "0x0",
          "logIndex": "0x0",
          "removed": false
        }
      ],
      "logsBloom": "0x00000000100000000000000000000000100000000000000000000000000000000000000000000000000000000000000000000000000000000000000000000000000000000000000000000008000000000000000000000000000000000000000000000000020000000000000000000800008000000000000000020010040204000000000000000000000000000000000000000100000000000000000000000000000000000000000000000000000000000000020000000000000000000000000000000002000000000000000000000000000000000000000000000000000020000000000000000000000000000000000000000000000000000000000000000000",
      "type": "0x2",
      "transactionHash": "0x48cc60b563c0e2d9e7bc34970a3d63043d0814d5fd0c7a3c8ad7f43e9dafc5bb",
      "transactionIndex": "0x0",
      "blockHash": "0x909a122b790d3c56c8f4ad926088e1e837decf20379843c6042463f4db807e3a",
      "blockNumber": "0x16b63eb",
      "gasUsed": "0xe0dc",
      "effectiveGasPrice": "0x4900bac",
      "from": "0x4fd190a87d84809e13ac9d8a90021d06c017e954",
      "to": "0x205fbaa9320272544ed08adab55a0501850ef330",
      "contractAddress": null
    },
    {
      "status": "0x1",
      "cumulativeGasUsed": "0x14950d5",
      "logs": [
        {
          "address": "0x205fbaa9320272544ed08adab55a0501850ef330",
          "topics": [
            "0x8c5be1e5ebec7d5bd14f71427d1e84f3dd0314c0f7b2291e5b200ac8c7c3b925",
            "0x0000000000000000000000004fd190a87d84809e13ac9d8a90021d06c017e954",
            "0x000000000000000000000000192654c05f9165903bb1f625ebf94e808037800a",
            "0x0000000000000000000000000000000000000000000000000000000000000010"
          ],
          "data": "0x",
          "blockHash": "0x909a122b790d3c56c8f4ad926088e1e837decf20379843c6042463f4db807e3a",
          "blockNumber": "0x16b63eb",
          "transactionHash": "0x952a17219eaf6b77ca599298910cc07d58ff7337d1437ba93e29e8549bb66356",
          "transactionIndex": "0x1",
          "logIndex": "0x0",
          "removed": false
        }
      ],
      "logsBloom": "0x00000000100000000000000000000000100000000000000000000000000000000000000000000000000000000000000000000000000000000000010000200000000000000000000000000000000000000000000000000000000000000000000000000000000000000000000000000000008000000000000000020000040204000000000000000000000000000000000000000100000000000000000000000040020000000000000000000000000000000000020000000000000000000000000000000000000000000000000000040000000000000000000000000000000000000010000000000000000000000000000000000000000000000000000000000000",
      "type": "0x2",
      "transactionHash": "0x952a17219eaf6b77ca599298910cc07d58ff7337d1437ba93e29e8549bb66356",
      "transactionIndex": "0x1",
      "blockHash": "0x909a122b790d3c56c8f4ad926088e1e837decf20379843c6042463f4db807e3a",
      "blockNumber": "0x16b63eb",
      "gasUsed": "0xbfb6",
      "effectiveGasPrice": "0x4900bac",
      "from": "0x4fd190a87d84809e13ac9d8a90021d06c017e954",
      "to": "0x205fbaa9320272544ed08adab55a0501850ef330",
      "contractAddress": null
    },
    {
      "status": "0x1",
      "cumulativeGasUsed": "0x14a7f27",
      "logs": [
        {
          "address": "0x192654c05f9165903bb1f625ebf94e808037800a",
          "topics": [
            "0x5f9c03de076f5063cd3ebcfe8ef7aa8af378e4b35a83c77ba9777e97083879a2",
            "0x0000000000000000000000000000000000000000000000000000000000000010",
            "0x0000000000000000000000004fd190a87d84809e13ac9d8a90021d06c017e954"
          ],
          "data": "0x00000000000000000000000000000000000000000000003635c9adc5dea00000",
          "blockHash": "0x909a122b790d3c56c8f4ad926088e1e837decf20379843c6042463f4db807e3a",
          "blockNumber": "0x16b63eb",
          "transactionHash": "0xe84e223d6b0ab877a53bb774c3b30ae6ab73a4e268e484713b65b0273f112db5",
          "transactionIndex": "0x2",
          "logIndex": "0x0",
          "removed": false
        }
      ],
      "logsBloom": "0x00002000101000000000000000000000100000000000000000000000000000000000000000000000000000000000000400000000000000000000000000000000000000000000000000000000000000000000000000000000000000000000000000000000000002000000000000000000000000000000000000020000040000000000000000000000000000000000000000000100000000000000000000000000000000000000000000000000000000000000020000000000000000000000000000000000000000000000000000000000000000000200000000000000000000000000000000000000000000000000000000000000000000000000000040000000",
      "type": "0x2",
      "transactionHash": "0xe84e223d6b0ab877a53bb774c3b30ae6ab73a4e268e484713b65b0273f112db5",
      "transactionIndex": "0x2",
      "blockHash": "0x909a122b790d3c56c8f4ad926088e1e837decf20379843c6042463f4db807e3a",
      "blockNumber": "0x16b63eb",
      "gasUsed": "0x1ee08",
      "effectiveGasPrice": "0x4900bac",
      "from": "0x4fd190a87d84809e13ac9d8a90021d06c017e954",
      "to": "0x192654c05f9165903bb1f625ebf94e808037800a",
      "contractAddress": null
    }
  ],
  "libraries": [],
  "pending": [],
  "returns": {},
  "timestamp": 1763338885,
  "chain": 3536,
  "commit": "f862084"
}