{
  "transactions": [
    {
      "hash": "0x6577eafe4da4a3ca932a3ff7a992d9157e9bab81e0f1f4a017efe2b7c123582b",
      "transactionType": "CALL",
      "contractName": null,
      "contractAddress": "0x425c59f0b45b51fd2e440bd451110835ba98c623",
      "function": "mint(address)",
      "arguments": [
        "0xFd13F52f5B4389E67Bd74b60d16d6352117b5138"
      ],
      "transaction": {
        "from": "0xfd13f52f5b4389e67bd74b60d16d6352117b5138",
        "to": "0x425c59f0b45b51fd2e440bd451110835ba98c623",
        "gas": "0x192d9",
        "value": "0x0",
        "input": "0x6a627842000000000000000000000000fd13f52f5b4389e67bd74b60d16d6352117b5138",
        "nonce": "0x6",
        "chainId": "0x79d9"
      },
      "additionalContracts": [],
      "isFixedGasLimit": false
    },
    {
      "hash": "0xe0f5dc53c137e3410eec44b2a5026836da549d006c6434c81c21250780d3d392",
      "transactionType": "CALL",
      "contractName": null,
      "contractAddress": "0x425c59f0b45b51fd2e440bd451110835ba98c623",
      "function": "approve(address,uint256)",
      "arguments": [
        "0x5231E0649C8560A0e3f24fA4ee07F163846b0E2b",
        "1"
      ],
      "transaction": {
        "from": "0xfd13f52f5b4389e67bd74b60d16d6352117b5138",
        "to": "0x425c59f0b45b51fd2e440bd451110835ba98c623",
        "gas": "0x108cc",
        "value": "0x0",
        "input": "0x095ea7b30000000000000000000000005231e0649c8560a0e3f24fa4ee07f163846b0e2b0000000000000000000000000000000000000000000000000000000000000001",
        "nonce": "0x7",
        "chainId": "0x79d9"
      },
      "additionalContracts": [],
      "isFixedGasLimit": false
    },
    {
      "hash": "0xfab9375a1f47abe2f9e08c3497575278ebf4fc5f801ed7e89d3fb5f30c61c628",
      "transactionType": "CALL",
      "contractName": null,
      "contractAddress": "0x5231e0649c8560a0e3f24fa4ee07f163846b0e2b",
      "function": "listNFT(uint256,uint256)",
      "arguments": [
        "1",
        "1000000000000000000000"
      ],
      "transaction": {
        "from": "0xfd13f52f5b4389e67bd74b60d16d6352117b5138",
        "to": "0x5231e0649c8560a0e3f24fa4ee07f163846b0e2b",
        "gas": "0x3071e",
        "value": "0x0",
        "input": "0x94383f14000000000000000000000000000000000000000000000000000000000000000100000000000000000000000000000000000000000000003635c9adc5dea00000",
        "nonce": "0x8",
        "chainId": "0x79d9"
      },
      "additionalContracts": [],
      "isFixedGasLimit": false
    }
  ],
  "receipts": [
    {
      "status": "0x1",
      "cumulativeGasUsed": "0x16c7b31",
      "logs": [
        {
          "address": "0x425c59f0b45b51fd2e440bd451110835ba98c623",
          "topics": [
            "0xddf252ad1be2c89b69c2b068fc378daa952ba7f163c4a11628f55a4df523b3ef",
            "0x0000000000000000000000000000000000000000000000000000000000000000",
            "0x000000000000000000000000fd13f52f5b4389e67bd74b60d16d6352117b5138",
            "0x0000000000000000000000000000000000000000000000000000000000000001"
          ],
          "data": "0x",
          "blockHash": "0x26f31903cceb36f122ac7297536174b665c5b3c51a52359b219bdbf32000ef05",
          "blockNumber": "0x16b73bc",
          "transactionHash": "0x6577eafe4da4a3ca932a3ff7a992d9157e9bab81e0f1f4a017efe2b7c123582b",
          "transactionIndex": "0x0",
          "logIndex": "0x0",
          "removed": false
        }
      ],
      "logsBloom": "0x00000000000000000000000000000000000000000000000000000000000000000000000000000000000000000000000000000000000000080000000000040000000000000000000000000008000000000000000000040000000000000000000000000000020000000000000000000800000000000000000000000010000400200000000000000000000000000000000000000000000000000000000000000000000000000000000000000000000000000000000000000000001000000000200000000002000000000000000000000000000000000000000000000000000060000000000000200000000000000000000000000000000000000000000000000000",
      "type": "0x2",
      "transactionHash": "0x6577eafe4da4a3ca932a3ff7a992d9157e9bab81e0f1f4a017efe2b7c123582b",
      "transactionIndex": "0x0",
      "blockHash": "0x26f31903cceb36f122ac7297536174b665c5b3c51a52359b219bdbf32000ef05",
      "blockNumber": "0x16b73bc",
      "gasUsed": "0x123a8",
      "effectiveGasPrice": "0x1a20f192",
      "from": "0xfd13f52f5b4389e67bd74b60d16d6352117b5138",
      "to": "0x425c59f0b45b51fd2e440bd451110835ba98c623",
      "contractAddress": null
    },
    {
      "status": "0x1",
      "cumulativeGasUsed": "0x16c173f",
      "logs": [
        {
          "address": "0x425c59f0b45b51fd2e440bd451110835ba98c623",
          "topics": [
            "0x8c5be1e5ebec7d5bd14f71427d1e84f3dd0314c0f7b2291e5b200ac8c7c3b925",
            "0x000000000000000000000000fd13f52f5b4389e67bd74b60d16d6352117b5138",
            "0x0000000000000000000000005231e0649c8560a0e3f24fa4ee07f163846b0e2b",
            "0x0000000000000000000000000000000000000000000000000000000000000001"
          ],
          "data": "0x",
          "blockHash": "0x26f31903cceb36f122ac7297536174b665c5b3c51a52359b219bdbf32000ef05",
          "blockNumber": "0x16b73bc",
          "transactionHash": "0xe0f5dc53c137e3410eec44b2a5026836da549d006c6434c81c21250780d3d392",
          "transactionIndex": "0x1",
          "logIndex": "0x0",
          "removed": false
        }
      ],
      "logsBloom": "0x00000000000000000000000000000000000000000000000000000000000000000000000000000000000000000000000000000000000000080000000000240002000000000000000000000000000000000000040000040000000000000000000000000000000000000000000000000000000000000000000000000000000400200000000000000000000000000002000000000000000000000000000000000000020000000000000000000000000000000000000000000000001000000000200000000000000000000000000000000000000000000000000000000000000040000010000000200000000000000000000000000000000000000000000000000000",
      "type": "0x2",
      "transactionHash": "0xe0f5dc53c137e3410eec44b2a5026836da549d006c6434c81c21250780d3d392",
      "transactionIndex": "0x1",
      "blockHash": "0x26f31903cceb36f122ac7297536174b665c5b3c51a52359b219bdbf32000ef05",
      "blockNumber": "0x16b73bc",
      "gasUsed": "0xbfb6",
      "effectiveGasPrice": "0x1a20f192",
      "from": "0xfd13f52f5b4389e67bd74b60d16d6352117b5138",
      "to": "0x425c59f0b45b51fd2e440bd451110835ba98c623",
      "contractAddress": null
    },
    {
      "status": "0x1",
      "cumulativeGasUsed": "0x16d88b6",
      "logs": [
        {
          "address": "0x5231e0649c8560a0e3f24fa4ee07f163846b0e2b",
          "topics": [
            "0x5f9c03de076f5063cd3ebcfe8ef7aa8af378e4b35a83c77ba9777e97083879a2",
            "0x0000000000000000000000000000000000000000000000000000000000000001",
            "0x000000000000000000000000fd13f52f5b4389e67bd74b60d16d6352117b5138"
          ],
          "data": "0x00000000000000000000000000000000000000000000003635c9adc5dea00000",
          "blockHash": "0x26f31903cceb36f122ac7297536174b665c5b3c51a52359b219bdbf32000ef05",
          "blockNumber": "0x16b73bc",
          "transactionHash": "0xfab9375a1f47abe2f9e08c3497575278ebf4fc5f801ed7e89d3fb5f30c61c628",
          "transactionIndex": "0x2",
          "logIndex": "0x0",
          "removed": false
        }
      ],
      "logsBloom": "0x00000000000000000000000000000000000000000000000000000000800000000000000000000000000000000000000400000000000000000000000000040000000000000000000000000000000000000000000000040000000000000000000000000000000002000000000000000000000000000000000000000000000400200000000000000000000000000000000000000000000000000000000000000000000000000000000800000000000000000000000000000000000000000000200000000000000000000000000000000000000000001200000000000000000040000000000000000000000000000000000000000000000000000000000000000000",
      "type": "0x2",
      "transactionHash": "0xfab9375a1f47abe2f9e08c3497575278ebf4fc5f801ed7e89d3fb5f30c61c628",
      "transactionIndex": "0x2",
      "blockHash": "0x26f31903cceb36f122ac7297536174b665c5b3c51a52359b219bdbf32000ef05",
      "blockNumber": "0x16b73bc",
      "gasUsed": "0x2312d",
      "effectiveGasPrice": "0x1a20f192",
      "from": "0xfd13f52f5b4389e67bd74b60d16d6352117b5138",
      "to": "0x5231e0649c8560a0e3f24fa4ee07f163846b0e2b",
      "contractAddress": null
    }
  ],
  "libraries": [],
  "pending": [],
  "returns": {},
  "timestamp": 1763387732,
  "chain": 31193,
  "commit": "66b3ce3"
}