{
  "transactions": [
    {
      "hash": "0xabf5e7d4c2da252da5da677de95fd86e7639005315b891ddbd60ea5cbf81ad29",
      "transactionType": "CALL",
      "contractName": null,
      "contractAddress": "0x425c59f0b45b51fd2e440bd451110835ba98c623",
      "function": "mint(address)",
      "arguments": [
        "0xFd13F52f5B4389E67Bd74b60d16d6352117b5138"
      ],
      "transaction": {
        "from": "0xfd13f52f5b4389e67bd74b60d16d6352117b5138",
        "to": "0x425c59f0b45b51fd2e440bd451110835ba98c623",
        "gas": "0x192d9",
        "value": "0x0",
        "input": "0x6a627842000000000000000000000000fd13f52f5b4389e67bd74b60d16d6352117b5138",
        "nonce": "0x9",
        "chainId": "0x79d9"
      },
      "additionalContracts": [],
      "isFixedGasLimit": false
    },
    {
      "hash": "0x7b480b95884167bda3e8fbca5654bb73718dc689b3592f6e9b0426b7d27a7243",
      "transactionType": "CALL",
      "contractName": null,
      "contractAddress": "0x425c59f0b45b51fd2e440bd451110835ba98c623",
      "function": "approve(address,uint256)",
      "arguments": [
        "0x5231E0649C8560A0e3f24fA4ee07F163846b0E2b",
        "2"
      ],
      "transaction": {
        "from": "0xfd13f52f5b4389e67bd74b60d16d6352117b5138",
        "to": "0x425c59f0b45b51fd2e440bd451110835ba98c623",
        "gas": "0x108cc",
        "value": "0x0",
        "input": "0x095ea7b30000000000000000000000005231e0649c8560a0e3f24fa4ee07f163846b0e2b0000000000000000000000000000000000000000000000000000000000000002",
        "nonce": "0xa",
        "chainId": "0x79d9"
      },
      "additionalContracts": [],
      "isFixedGasLimit": false
    },
    {
      "hash": "0x8e7495821423a652bca63db8e0948402b7845e3c0ab484e1c5a649d9b0637118",
      "transactionType": "CALL",
      "contractName": null,
      "contractAddress": "0x5231e0649c8560a0e3f24fa4ee07f163846b0e2b",
      "function": "listNFT(uint256,uint256)",
      "arguments": [
        "2",
        "1000000000000000000000"
      ],
      "transaction": {
        "from": "0xfd13f52f5b4389e67bd74b60d16d6352117b5138",
        "to": "0x5231e0649c8560a0e3f24fa4ee07f163846b0e2b",
        "gas": "0x3071e",
        "value": "0x0",
        "input": "0x94383f14000000000000000000000000000000000000000000000000000000000000000200000000000000000000000000000000000000000000003635c9adc5dea00000",
        "nonce": "0xb",
        "chainId": "0x79d9"
      },
      "additionalContracts": [],
      "isFixedGasLimit": false
    }
  ],
  "receipts": [
    {
      "status": "0x1",
      "cumulativeGasUsed": "0x1c9476b",
      "logs": [
        {
          "address": "0x425c59f0b45b51fd2e440bd451110835ba98c623",
          "topics": [
            "0xddf252ad1be2c89b69c2b068fc378daa952ba7f163c4a11628f55a4df523b3ef",
            "0x0000000000000000000000000000000000000000000000000000000000000000",
            "0x000000000000000000000000fd13f52f5b4389e67bd74b60d16d6352117b5138",
            "0x0000000000000000000000000000000000000000000000000000000000000002"
          ],
          "data": "0x",
          "blockHash": "0x3b524e525982a8b9871580dc75f79bd10fff1dbea39ec255f48b65da29acad50",
          "blockNumber": "0x16b73dc",
          "transactionHash": "0xabf5e7d4c2da252da5da677de95fd86e7639005315b891ddbd60ea5cbf81ad29",
          "transactionIndex": "0x0",
          "logIndex": "0x0",
          "removed": false
        }
      ],
      "logsBloom": "0x04000000000000000000000000000000000000000000000000000000000000000000000000000000000000000000000000000000000000080000000000000000000000000000000000000008000000000000000000000000000000000000000000000000020000000000000000000800000000000000000000000010000400200000000000000000000000000000000000000000000000000000000000000000000000000000000000000100000000000000000000000000001000000000200000000002000000000000000000000000000000000000000000000000000020000000000000200000000000000000000000000000008000000000000000000000",
      "type": "0x2",
      "transactionHash": "0xabf5e7d4c2da252da5da677de95fd86e7639005315b891ddbd60ea5cbf81ad29",
      "transactionIndex": "0x0",
      "blockHash": "0x3b524e525982a8b9871580dc75f79bd10fff1dbea39ec255f48b65da29acad50",
      "blockNumber": "0x16b73dc",
      "gasUsed": "0x123a8",
      "effectiveGasPrice": "0x239ae968",
      "from": "0xfd13f52f5b4389e67bd74b60d16d6352117b5138",
      "to": "0x425c59f0b45b51fd2e440bd451110835ba98c623",
      "contractAddress": null
    },
    {
      "status": "0x1",
      "cumulativeGasUsed": "0x1c8e379",
      "logs": [
        {
          "address": "0x425c59f0b45b51fd2e440bd451110835ba98c623",
          "topics": [
            "0x8c5be1e5ebec7d5bd14f71427d1e84f3dd0314c0f7b2291e5b200ac8c7c3b925",
            "0x000000000000000000000000fd13f52f5b4389e67bd74b60d16d6352117b5138",
            "0x0000000000000000000000005231e0649c8560a0e3f24fa4ee07f163846b0e2b",
            "0x0000000000000000000000000000000000000000000000000000000000000002"
          ],
          "data": "0x",
          "blockHash": "0x3b524e525982a8b9871580dc75f79bd10fff1dbea39ec255f48b65da29acad50",
          "blockNumber": "0x16b73dc",
          "transactionHash": "0x7b480b95884167bda3e8fbca5654bb73718dc689b3592f6e9b0426b7d27a7243",
          "transactionIndex": "0x1",
          "logIndex": "0x0",
          "removed": false
        }
      ],
      "logsBloom": "0x04000000000000000000000000000000000000000000000000000000000000000000000000000000000000000000000000000000000000080000000000200002000000000000000000000000000000000000040000000000000000000000000000000000000000000000000000000000000000000000000000000000000400200000000000000000000000000002000000000000000000000000000000000000020000000000000000000100000000000000000000000000001000000000200000000000000000000000000000000000000000000000000000000000000000000010000000200000000000000000000000000000008000000000000000000000",
      "type": "0x2",
      "transactionHash": "0x7b480b95884167bda3e8fbca5654bb73718dc689b3592f6e9b0426b7d27a7243",
      "transactionIndex": "0x1",
      "blockHash": "0x3b524e525982a8b9871580dc75f79bd10fff1dbea39ec255f48b65da29acad50",
      "blockNumber": "0x16b73dc",
      "gasUsed": "0xbfb6",
      "effectiveGasPrice": "0x239ae968",
      "from": "0xfd13f52f5b4389e67bd74b60d16d6352117b5138",
      "to": "0x425c59f0b45b51fd2e440bd451110835ba98c623",
      "contractAddress": null
    },
    {
      "status": "0x1",
      "cumulativeGasUsed": "0x1ca54f0",
      "logs": [
        {
          "address": "0x5231e0649c8560a0e3f24fa4ee07f163846b0e2b",
          "topics": [
            "0x5f9c03de076f5063cd3ebcfe8ef7aa8af378e4b35a83c77ba9777e97083879a2",
            "0x0000000000000000000000000000000000000000000000000000000000000002",
            "0x000000000000000000000000fd13f52f5b4389e67bd74b60d16d6352117b5138"
          ],
          "data": "0x00000000000000000000000000000000000000000000003635c9adc5dea00000",
          "blockHash": "0x3b524e525982a8b9871580dc75f79bd10fff1dbea39ec255f48b65da29acad50",
          "blockNumber": "0x16b73dc",
          "transactionHash": "0x8e7495821423a652bca63db8e0948402b7845e3c0ab484e1c5a649d9b0637118",
          "transactionIndex": "0x2",
          "logIndex": "0x0",
          "removed": false
        }
      ],
      "logsBloom": "0x04000000000000000000000000000000000000000000000000000000800000000000000000000000000000000000000400000000000000000000000000000000000000000000000000000000000000000000000000000000000000000000000000000000000002000000000000000000000000000000000000000000000400200000000000000000000000000000000000000000000000000000000000000000000000000000000800000100000000000000000000000000000000000000200000000000000000000000000000000000000000001200000000000000000000000000000000000000000000000000000000000000008000000000000000000000",
      "type": "0x2",
      "transactionHash": "0x8e7495821423a652bca63db8e0948402b7845e3c0ab484e1c5a649d9b0637118",
      "transactionIndex": "0x2",
      "blockHash": "0x3b524e525982a8b9871580dc75f79bd10fff1dbea39ec255f48b65da29acad50",
      "blockNumber": "0x16b73dc",
      "gasUsed": "0x2312d",
      "effectiveGasPrice": "0x239ae968",
      "from": "0xfd13f52f5b4389e67bd74b60d16d6352117b5138",
      "to": "0x5231e0649c8560a0e3f24fa4ee07f163846b0e2b",
      "contractAddress": null
    }
  ],
  "libraries": [],
  "pending": [],
  "returns": {},
  "timestamp": 1763388128,
  "chain": 31193,
  "commit": "66b3ce3"
}