{
  "transactions": [
    {
      "hash": "0x78a0ee109398b60c81479300a44f2bab0c1ce97da48ddb0c837c425fdb8d9132",
      "transactionType": "CALL",
      "contractName": null,
      "contractAddress": "0x425c59f0b45b51fd2e440bd451110835ba98c623",
      "function": "mint(address)",
      "arguments": [
        "0xFd13F52f5B4389E67Bd74b60d16d6352117b5138"
      ],
      "transaction": {
        "from": "0xfd13f52f5b4389e67bd74b60d16d6352117b5138",
        "to": "0x425c59f0b45b51fd2e440bd451110835ba98c623",
        "gas": "0x13695",
        "value": "0x0",
        "input": "0x6a627842000000000000000000000000fd13f52f5b4389e67bd74b60d16d6352117b5138",
        "nonce": "0xf",
        "chainId": "0x79d9"
      },
      "additionalContracts": [],
      "isFixedGasLimit": false
    },
    {
      "hash": "0x9dd23a55edee6f17ece33263861d26129875dbb5ca1e2a07801456432c475c9d",
      "transactionType": "CALL",
      "contractName": null,
      "contractAddress": "0x425c59f0b45b51fd2e440bd451110835ba98c623",
      "function": "approve(address,uint256)",
      "arguments": [
        "0x5231E0649C8560A0e3f24fA4ee07F163846b0E2b",
        "4"
      ],
      "transaction": {
        "from": "0xfd13f52f5b4389e67bd74b60d16d6352117b5138",
        "to": "0x425c59f0b45b51fd2e440bd451110835ba98c623",
        "gas": "0x108cc",
        "value": "0x0",
        "input": "0x095ea7b30000000000000000000000005231e0649c8560a0e3f24fa4ee07f163846b0e2b0000000000000000000000000000000000000000000000000000000000000004",
        "nonce": "0x10",
        "chainId": "0x79d9"
      },
      "additionalContracts": [],
      "isFixedGasLimit": false
    },
    {
      "hash": "0x988187a3ad3538f5b7dd2c7bc047ecee2b3eb584d4e8be992b1311d43faf0a99",
      "transactionType": "CALL",
      "contractName": null,
      "contractAddress": "0x5231e0649c8560a0e3f24fa4ee07f163846b0e2b",
      "function": "listNFT(uint256,uint256)",
      "arguments": [
        "4",
        "1000000000000000000000"
      ],
      "transaction": {
        "from": "0xfd13f52f5b4389e67bd74b60d16d6352117b5138",
        "to": "0x5231e0649c8560a0e3f24fa4ee07f163846b0e2b",
        "gas": "0x2d307",
        "value": "0x0",
        "input": "0x94383f14000000000000000000000000000000000000000000000000000000000000000400000000000000000000000000000000000000000000003635c9adc5dea00000",
        "nonce": "0x11",
        "chainId": "0x79d9"
      },
      "additionalContracts": [],
      "isFixedGasLimit": false
    }
  ],
  "receipts": [
    {
      "status": "0x1",
      "cumulativeGasUsed": "0x1b4187b",
      "logs": [
        {
          "address": "0x425c59f0b45b51fd2e440bd451110835ba98c623",
          "topics": [
            "0xddf252ad1be2c89b69c2b068fc378daa952ba7f163c4a11628f55a4df523b3ef",
            "0x0000000000000000000000000000000000000000000000000000000000000000",
            "0x000000000000000000000000fd13f52f5b4389e67bd74b60d16d6352117b5138",
            "0x0000000000000000000000000000000000000000000000000000000000000004"
          ],
          "data": "0x",
          "blockHash": "0x9afa98c23563f45c751b46d8ca673cd322ae24feb7dd7bfd0d808325825d32ad",
          "blockNumber": "0x16b73e7",
          "transactionHash": "0x78a0ee109398b60c81479300a44f2bab0c1ce97da48ddb0c837c425fdb8d9132",
          "transactionIndex": "0x0",
          "logIndex": "0x0",
          "removed": false
        }
      ],
      "logsBloom": "0x00000000000000000000000000000000000000000000000000000000000000000000000000000000000000000000000000000000000000080000000000000000000000000000000000000008000000000000000000000000000000000000000008000000020000000000000000000800000000000000000000000010000400200000000000000000000000000000000000000000000000000000000000000000000000000000000000000000000000000000000000000000003000000000200000000002000000000000000000000000000000008000000000000000000020000000000000200000000000000000000000000000000000000000000000000000",
      "type": "0x2",
      "transactionHash": "0x78a0ee109398b60c81479300a44f2bab0c1ce97da48ddb0c837c425fdb8d9132",
      "transactionIndex": "0x0",
      "blockHash": "0x9afa98c23563f45c751b46d8ca673cd322ae24feb7dd7bfd0d808325825d32ad",
      "blockNumber": "0x16b73e7",
      "gasUsed": "0xe0dc",
      "effectiveGasPrice": "0x26664957",
      "from": "0xfd13f52f5b4389e67bd74b60d16d6352117b5138",
      "to": "0x425c59f0b45b51fd2e440bd451110835ba98c623",
      "contractAddress": null
    },
    {
      "status": "0x1",
      "cumulativeGasUsed": "0x1b3f755",
      "logs": [
        {
          "address": "0x425c59f0b45b51fd2e440bd451110835ba98c623",
          "topics": [
            "0x8c5be1e5ebec7d5bd14f71427d1e84f3dd0314c0f7b2291e5b200ac8c7c3b925",
            "0x000000000000000000000000fd13f52f5b4389e67bd74b60d16d6352117b5138",
            "0x0000000000000000000000005231e0649c8560a0e3f24fa4ee07f163846b0e2b",
            "0x0000000000000000000000000000000000000000000000000000000000000004"
          ],
          "data": "0x",
          "blockHash": "0x9afa98c23563f45c751b46d8ca673cd322ae24feb7dd7bfd0d808325825d32ad",
          "blockNumber": "0x16b73e7",
          "transactionHash": "0x9dd23a55edee6f17ece33263861d26129875dbb5ca1e2a07801456432c475c9d",
          "transactionIndex": "0x1",
          "logIndex": "0x0",
          "removed": false
        }
      ],
      "logsBloom": "0x00000000000000000000000000000000000000000000000000000000000000000000000000000000000000000000000000000000000000080000000000200002000000000000000000000000000000000000040000000000000000000000000008000000000000000000000000000000000000000000000000000000000400200000000000000000000000000002000000000000000000000000000000000000020000000000000000000000000000000000000000000000003000000000200000000000000000000000000000000000000000008000000000000000000000000010000000200000000000000000000000000000000000000000000000000000",
      "type": "0x2",
      "transactionHash": "0x9dd23a55edee6f17ece33263861d26129875dbb5ca1e2a07801456432c475c9d",
      "transactionIndex": "0x1",
      "blockHash": "0x9afa98c23563f45c751b46d8ca673cd322ae24feb7dd7bfd0d808325825d32ad",
      "blockNumber": "0x16b73e7",
      "gasUsed": "0xbfb6",
      "effectiveGasPrice": "0x26664957",
      "from": "0xfd13f52f5b4389e67bd74b60d16d6352117b5138",
      "to": "0x425c59f0b45b51fd2e440bd451110835ba98c623",
      "contractAddress": null
    },
    {
      "status": "0x1",
      "cumulativeGasUsed": "0x1b52600",
      "logs": [
        {
          "address": "0x5231e0649c8560a0e3f24fa4ee07f163846b0e2b",
          "topics": [
            "0x5f9c03de076f5063cd3ebcfe8ef7aa8af378e4b35a83c77ba9777e97083879a2",
            "0x0000000000000000000000000000000000000000000000000000000000000004",
            "0x000000000000000000000000fd13f52f5b4389e67bd74b60d16d6352117b5138"
          ],
          "data": "0x00000000000000000000000000000000000000000000003635c9adc5dea00000",
          "blockHash": "0x9afa98c23563f45c751b46d8ca673cd322ae24feb7dd7bfd0d808325825d32ad",
          "blockNumber": "0x16b73e7",
          "transactionHash": "0x988187a3ad3538f5b7dd2c7bc047ecee2b3eb584d4e8be992b1311d43faf0a99",
          "transactionIndex": "0x2",
          "logIndex": "0x0",
          "removed": false
        }
      ],
      "logsBloom": "0x00000000000000000000000000000000000000000000000000000000800000000000000000000000000000000000000400000000000000000000000000000000000000000000000000000000000000000000000000000000000000000000000008000000000002000000000000000000000000000000000000000000000400200000000000000000000000000000000000000000000000000000000000000000000000000000000800000000000000000000000000000000002000000000200000000000000000000000000000000000000000009200000000000000000000000000000000000000000000000000000000000000000000000000000000000000",
      "type": "0x2",
      "transactionHash": "0x988187a3ad3538f5b7dd2c7bc047ecee2b3eb584d4e8be992b1311d43faf0a99",
      "transactionIndex": "0x2",
      "blockHash": "0x9afa98c23563f45c751b46d8ca673cd322ae24feb7dd7bfd0d808325825d32ad",
      "blockNumber": "0x16b73e7",
      "gasUsed": "0x1ee61",
      "effectiveGasPrice": "0x26664957",
      "from": "0xfd13f52f5b4389e67bd74b60d16d6352117b5138",
      "to": "0x5231e0649c8560a0e3f24fa4ee07f163846b0e2b",
      "contractAddress": null
    }
  ],
  "libraries": [],
  "pending": [],
  "returns": {},
  "timestamp": 1763388262,
  "chain": 31193,
  "commit": "66b3ce3"
}